:020000040000fa
:080000000001040000000000f3
:020000040000fa
:10020000ef4422000e7f22000e0188000000000053
:100210000c00070000562300010020001100070019
:10022000000020000000e000020032000000020098
:1002300000000000a40a0200000000000040da00f4
:100240000000fe004440a900a00020000000e000e3
:100250000300320000002000a00188004440a800f4
:100260000000060091018800800078000000eb008b
:1002700015003700e280400032a0b4009101ba00be
:10028000e280400032a0b4009102ba00e280400057
:1002900032a0b4000002eb00472bde00f507b200ed
:1002a000602ce10004003a000059eb008301e900f2
:1002b000fdff3e00040037006128e100010032002c
:1002c0000082eb00040007001101ba000200e00008
:1002d000e8ff3a00000006003159ba008301e90046
:1002e0000c0032002159ba008301e90008003200f5
:1002f0000400e00003003a00e280400032a0b400b5
:10030000f5ff370011d9ba008301e900faff3a007e
:100310008100e800e180400032a0b4000000060047
:10032000b0100400000000002a12040000000000c9
:10033000c21e040000000000703004000000000035
:10034000f6300400000000000040da000000fe006b
:1003500003f0a200889fbe008a9fbe008c1f780019
:100360004e010700550133006450e1004f00320098
:100370006420e1005200320003826c0007003b0061
:100380000905d0000306d000820f54000c065d0062
:10039000020039000200320089017800030678006b
:1003a0008582550004003d000003fd008103fd002f
:1003b0008502ea008b854200840f720002003b0038
:1003c00060001000e08018006011b8000005eb002c
:1003d0007a28e1000a00390006007800c75ddd00d8
:1003e000f707b200878075002d0037008281710009
:1003f0000a017800610560008180d1000080d3008f
:100400008502e900f9ff3b000604400087844800ac
:1004100002003b0060041400e0841c000988a30073
:10042000070032008a8171008281710061016400dd
:100430008904d1000884d3008b05e8001700370039
:100440000978a30013003a000b00e0001300340009
:100450008b05e9000804440089844c000a447400b8
:100460000978a3000d003a000b00e00007003400fb
:100470008b05e9000804440089844c0001003a001f
:100480000b0020000978a300f7ff32000001eb0009
:1004900002003700828171000a017800c400070061
:1004a0000cf0a70001f0a0000d0137006420e1006e
:1004b00002003a00838f6c000d0133000801be007a
:1004c0000200be0006013700889fbe008a9fbe0062
:1004d0008c1f7800f1000700f800330003866c00e1
:1004e0006450e1002e0032006420e100330032004d
:1004f0006150e1002f0032006120e1003100320044
:1005000085855500eb07b000090020000804200095
:10051000050037000804440089844c000a003100bb
:100520000603430087834b000001530081815b0079
:10053000f8ff33000203be000800a00008044400d6
:1005400089844c00f6ff3900c639dd008301730051
:1005500001003200130020008904d1000884d30078
:100560000998a300050032000800a7000300a000be
:100570008904d1000884d3008b05e8008904d100e8
:100580000884d3000001eb000281d200880007003c
:1005900001f0a1000cf0a70001f0a000d00037008e
:1005a0006420e100d20032000801be000200be005b
:1005b000f7ff37006120e100cd0032006000b80095
:1005c000f3ff37000000200001f82700f0ff37009c
:1005d000839f68000100e00002003d006000100001
:1005e000e08018000300e00002003d0060011100ff
:1005f000e0811900450107004f00e00002003b00c8
:1006000060001000e08018000000060014002000c8
:10061000ba0137000001be008b0007000470a7007c
:1006200003f0a1006509b100160032000d0035008d
:100630006828e10006003500f0ff2f00f1ff2700d9
:100640000300e00013003b0001002800000005004b
:1006500000004000818048008502e900fcff3a006c
:1006600008003700f88f420002003c008000eb00d9
:10067000000005008100d1000080d3008502e80061
:10068000fcff3a000300e00002003b0060001000a5
:10069000e0801800000006000001be006a000700ac
:1006a0000470a70003f0a10003f8a30013003a00b0
:1006b0006509b10010003200090035006928e10029
:1006c0000200350001002800000005000000400085
:1006d000818048008502e900fcff3a000000060026
:1006e000f88f4200050035008100d1000080d30062
:1006f0008502e800fcff3a00000006008000eb00e5
:1007000000000500889fbe008a9fbe00010578009a
:100710000100e0000400350008003c000000e0009b
:10072000200032000500370060001000e080180053
:1007300002003b0001f02c001a0037000004be004c
:100740006011b8006b0920000982cf000200390057
:100750000882cf000441b000694252000e0032000e
:1007600008003b0082817100610164008904d100ae
:100770000884d3008b05e8000442e800f9ff3a0042
:10078000050037000804440089844c008b05e9000b
:100790000442e900fbff3a00050007000af0a70049
:1007a00001f0a0004f05be004f04be00000006008f
:1007b00081002000618055000b003d000b002000ef
:1007c00061fe2f000100e1001d00340082817100f4
:1007d000610164008904d1000884d3000000e800ae
:1007e000faff3a007100200061006400030070000d
:1007f000020060000900320061044400e0844c0003
:100800000988a500050032008b05e8006808e100b2
:1008100002003a008904d1000884d300f20f2000be
:100820000258e10005003d00c75ddd00f907b20098
:100830008980750008007800000006000bf827008a
:100840008b00780000000500c70ade00f107b20047
:10085000f50fb20008003200e1cf42000200320082
:100860000170a00024000500810f7000010032001b
:100870000408050044000500810f700002003a00e2
:10088000140005008502e9000000400081c0480016
:10089000fcff3b000170a000240005000004be0026
:1008a000e9ff07000003be000405be000200be0011
:1008b000e5ff0700844f7500000006000200be003f
:1008c0006450e100050036006420e10002003600bb
:1008d0000968a30001003a000800be000160a00002
:1008e0004f0678004f05be004f04be000000060012
:1008f000f0ff2f00f1ff2700f9ff3700889fbe00af
:100900008a9fbe008c1f7800e4ff0700ebff3300d6
:1009100003866c006450e100240032006420e10092
:10092000270032006150e100220032006120e10026
:10093000210032008b854200eb07b1000134b80082
:10094000003ab8000804420089844a00013ab8001d
:100950000030b8008880400009014a0004003300dc
:100960000000400081804800020149008b05e90039
:10097000c909dd008301700001003200130020006e
:10098000c814de004814dd004709de001200b20082
:10099000c808de000884700085ff070001f0a10090
:1009a0000cf0a70001f0a000cdff37006120e100ae
:1009b000cfff32000801be000200be00f7ff370083
:1009c0006150e100fcff3a00c9ff37001400fa0053
:1009d000889fbe008a9fbe008c9fbe000004be00a0
:1009e0000205be00680047000a90be000890be00e5
:1009f000820007000078a3003d003a006100e1009a
:100a00003c0032000bf8a3003d003a006400e10016
:100a1000380032006c0347001e009000f03fb10028
:100a20003602be001603be000008a3000400320018
:100a30000402420085824a0006034b0087834b0074
:100a4000100798008e1f78006000b8006011b80091
:100a50005c0020006d0120006e00200002003700c5
:100a60008d86e900fc0020000402420085824a00d5
:100a700006034b0087834b0000044000818448003c
:100a800002054900838549006060e1001d60ad00fa
:100a90000804520089845a000a055b008b855b00bc
:100aa000030039001e60ad000802be000a03be004c
:100ab0000c06e900ecff3b000e87e900e8ff3b0075
:100ac0004f07780061026000840278008301d10042
:100ad0000281d3008180d3000080d3001e039000e8
:100ae00041b3de00f63fb000180007007e0037007b
:100af0000b30a0000800be000a01be007a003700db
:100b000012022000b2e18800740037006022b800b1
:100b1000060220000000d0008180d2000482d200b2
:100b20008582d2000000a0000202520083825a0097
:100b3000030031000202420083824a000000a1004b
:100b40000603e900f3ff3a00000006001800200049
:100b500057002000080453000d003d00060020004f
:100b600097fc2f000740e1001e00340084827200d1
:100b7000610260008301d1000281d3008180d30033
:100b80000080d3000804e800f8ff3a004700200086
:100b90006104600005047400040464000d00320068
:100ba00061004000e080480060014900e0814900a8
:100bb00003b8a500070032000603e8006538e1002d
:100bc00004003a008301d1000281d3008180d30068
:100bd0000080d300f87f20000830e10003003500da
:100be000080378006000b8006011b8004433dd00ed
:100bf000f300b2008301730000000600800078005b
:100c00005002be005003be004439de00f700b200bf
:100c1000f37f200003016100090032000218e100a7
:100c200016003a008501720083017300838173000e
:100c30000008200015003a00400020001300370093
:100c400085017200830173008381730005003a00ff
:100c500004a8be0006a8be00100020000b0037004c
:100c60000201e9000402420085824a0006034b00ab
:100c700087834b000748a300f9ff32000740a0001c
:100c800004a8be0006a8be00200020008000980036
:100c90009200980000000600680447000294be001d
:100ca0000094be00fc0447008694be008494be00fd
:100cb00009007800d1ff070008007800cfff070087
:100cc00099007800814f70000b003b000800be00c7
:100cd000250007004f00b10003003700f3ff270095
:100ce000f2ff2f006110b9004f06be004f05be0095
:100cf0004f04be000080fa0000000600889fbe007e
:100d00008a9fbe00841f7800e4fe07004f00780031
:100d100011003300f0ff2f00838f6c0006003b00b2
:100d2000040565000a00a7000800370009f0a600c6
:100d30001000200008003700820f5400838f5c00f1
:100d4000030039001000200001003e0000002000d8
:100d500009f0a7000000ea004f05be004f04be00e6
:100d60000000e00000000600e48240001078a300cc
:100d700007003200640240001178a3003400be0076
:100d80001401be00040032000330a700000006007a
:100d90003500be001501be000330a00000000600b3
:100da0000004780002000700080078004f010700e7
:100db000881f7800a0e380000000e00001003200fe
:100dc00000000100a8c3210008007800cb00070044
:100dd0006c044400e0c52100800f5400faff3a0083
:100de0004f04780000000600889fbe008a9fbe0066
:100df0008c9fbe000001780061c621001100e00058
:100e00000b003a00a0c6210030e3880010e3880000
:100e100051e3880021e38800214090000004a000f5
:100e2000a0409800614090000004a000e0409800bd
:100e3000e7004100c208de00c20cdd0024e38000b0
:100e4000edc72100e04422000d05500022002000e3
:100e5000811f7800110009000205d8000006780003
:100e6000cf007800c308dd00e48540008001eb007e
:100e7000e6c7210065c621000100370001027800a5
:100e8000244090000008a300020032000a0037004e
:100e9000110a780094007800214090000008a30017
:100ea000fbff320009014200828f5000020039002e
:100eb000840f51004600310094007800848f500068
:100ec000eeff3e00868f500002003900858f5000f3
:100ed000eaff390010e38000800f52004f003a0013
:100ee000858f50004d003a008301e800e18f5100ea
:100ef000e2ff36008c8f5400040036008a8f5400c5
:100f0000020031000b04780012003700614ab8007b
:100f10006151b900b0ff2f00010020000200500015
:100f200083805800800f5200818f5a0002003500e4
:100f300009047800070037000d8054001245220094
:100f400002004000110009000a80d8000a80b900a0
:100f5000000478000800780035010700800178005f
:100f6000e10f40002d00320010e3800003087800fc
:100f700012e3800064004100a2409000808f510085
:100f8000020032000104a000010037000104a100aa
:100f900021419800088041006400500080097800d9
:100fa00010e3880062c621000208780011e3800087
:100fb000214090000004a000a04098002340900031
:100fc0000004a100a041980002027800a7ff3700aa
:100fd00022e38800828f50000900360092007800da
:100fe00000c62100a241900003487800f1e2880089
:100ff000140978008040eb0020e380002140980035
:1010000020e38000000a7800244090000004a00043
:101010002042980064004200010037000000eb000d
:101020004f06be004f05be004f04be000000060084
:101030006400500020e38800a04090000104a1005b
:101040002140980000000600889fbe008a9fbe00d5
:1010500000057800e401500013001000c285de0096
:10106000234090000008a3000400320023e388001e
:10107000234090000004a100a041980001007800e6
:1010800059ff0700000478000000e000170032005c
:101090008a0f50001500320060b897000800500019
:1010a000c284de00898f5500010036008905780072
:1010b0004259dd008a0078000800780084000700ab
:1010c0008a0f5400090031004248dd00000044004e
:1010d0008a0f5000050036000a005000000044004e
:1010e000f2e2800003e380000288be00080078007e
:1010f0004f05be004f04be0000000600889fbe00e2
:101100008a1f7800000478003000900063006000bf
:1011100024003200080078004300070038059000e2
:1011200080ef2f0000006500300498002800900038
:101130000000e00004003200e804650002003a000c
:101140003500070029049800480090006f00070050
:10115000e10f400013003200b80090000102b2001d
:1011600010003a000ac8a30018003200b0e3800063
:101170000000e000150032000001780081047800d2
:10118000012a200012289000880f5000070032002a
:101190004205b0004905b000818f54000b003200b9
:1011a000f8ff37000080eb000900370002007800ec
:1011b00096000700b0e38000090040008000eb00cb
:1011c0001128980001007800010037000000eb00b2
:1011d0004f0578004f04be0000000600c1e3800008
:1011e0000100e0000300320011007800c0e3880035
:1011f00003003700200020008d00070080007800e9
:10120000e18f400002003a00906e2600b0e18800b5
:101210000100780000000600c1e3800001087800aa
:10122000c0e3880000000600881f780000047800f2
:10123000300090000008a300070032008000780012
:101240000120b20004003a0011049800a8009000a8
:10125000010c7800170037000018a30019003200b5
:101260000098a30017003200a80090000100e000e1
:1012700014003200180190000200e000110032005a
:10128000480090002a00070098009000810f50004d
:1012900003003200380090000003b30030049800cf
:1012a0000000eb001004980028009000000c78006b
:1012b000380090000058a300020032000080eb00cc
:1012c000010037000000eb004f047800000006002a
:1012d0008001eb000200370061f079008301e80033
:1012e000828f5100fcff3a00000006000c02e20071
:1012f00004003d000f42ab00020032000f02ab00c1
:10130000feff32000040da00feff37000a00fa005c
:1013100011002000b1bf9f00c0bf9f006a8057002e
:1013200000c0da004fb897000080fa000000060005
:101330000a00fa0080017800e20f500028003e0009
:10134000d0e38000e10f500008003200e0212000cf
:101350000000e0000500320064212000852120000b
:10136000a62120008001780004003700c42020005e
:10137000e520200006212000432120001440900099
:101380000004e000040035008009eb0014409000e8
:101390000074a00010429800154090000028a3009f
:1013a00003003a00154090000024a00090429800ed
:1013b0008001eb0007003700154090000008a300f3
:1013c000fdff320063c078000000fb00000b7800d6
:1013d0008301e800828f5100f7ff3a0008003700d0
:1013e00030002000b0bf9f00c3bf9f00d1bf9f004f
:1013f000e2bf9f006a80570000c0da006fb9970013
:10140000020078000080fa00000006000a00fa00de
:1014100051002000b1bf9f00c0bf9f006a805700ed
:1014200000c0da005fb897000080fa0000000600f4
:10143000889fbe0080047800e0e380000000e000a8
:1014400003003a00100007000000e0000a00350029
:10145000e0e380000900e00002003a0000047800a8
:10146000060037000004780009004000060007006d
:101470000000e00001003d000084eb00080078005f
:101480004f04be0000000600800078000000e0006d
:1014900004003a00e0c72100e0e388000101780081
:1014a000060037000081eb00e0442200808f5000ee
:1014b00002003e00e1e388000001eb00020078003a
:0414c0000000060022
:020000040000fa
:0200000401f009
:04000000e6bf000057
:020000040000fa
:0200000401f009
:04000400ff7f00007a
:020000040000fa
:0200000401f009
:040008007fff000076
:020000040000fa
:0200000401f009
:04001400ffff0000ea
:020000040000fa
:10000800a4010000a4010000a4010000a401000054
:10001800a4010000a4010000a4010000a401000044
:10002800a4010000a4010000a4010000a401000034
:10003800a4010000a401000036390000a40100005a
:10004800a4010000be400000fe3f0000b4230000f1
:10005800a4010000a40100006c2a0000a401000013
:10006800a4010000a4010000a4010000a4010000f4
:10007800a401000036410000d03c0000a4010000ab
:10008800fa4000005e400000a4010000a401000046
:10009800a4010000a4010000a4010000a4010000c4
:1000a800a4010000a4010000a4010000a4010000b4
:1000b800a4010000a4010000a4010000a4010000a4
:1000c800a4010000a4010000a4010000a401000094
:1000d800a4010000a4010000a4010000a401000084
:1000e800a4010000a4010000a4010000a401000074
:0800f800a4010000a4010000b6
:020000040000fa
:10010800a4010000a4010000a4010000a401000053
:10011800a4010000a4010000a4010000a401000043
:10012800a4010000a4010000a4010000a401000033
:10013800a4010000a401000036390000a401000059
:10014800a4010000be400000fe3f0000b4230000f0
:10015800a4010000a40100006c2a0000a401000012
:10016800a4010000a4010000a4010000a4010000f3
:10017800a401000036410000d03c0000a4010000aa
:10018800fa4000005e400000a4010000a401000045
:10019800a4010000a4010000a4010000a4010000c3
:1001a800a4010000a4010000a4010000a4010000b3
:1001b800a4010000a4010000a4010000a4010000a3
:1001c800a4010000a4010000a4010000a401000093
:1001d800a4010000a4010000a4010000a401000083
:1001e800a4010000a4010000a4010000a401000073
:0801f800a4010000a4010000b5
:020000040000fa
:1014c40049000000454f00004600000000430000b2
:0414d4000000000014
:020000040000fa
:1014d8000000fa00e6c2bf000080fb004600de0004
:1014e800614060000081fb00e7c2bf000080fb0094
:1014f8000000d100614060000080fb000000400057
:1015080080007800e7c2bf00614060000080fb00f7
:10151800008040000000400080007800e6c2bf0064
:101528000080fb004700de000080fb0000804000d8
:1015380000004000000041000080fa0000000600a2
:101548001400fa00e2ff07000000e0005d0032002e
:10155800631a0700661307005e1b07000040eb00d4
:10156800170c07005a1807000000eb00000f98003e
:10157800f00e200070079800f02720006007980000
:101588001000200050079800100020004007980025
:10159800100020003007980010002000100f98005d
:1015a8001e0890000000e00005003a00ee009000e0
:1015b8005e0090000088b900d0a6880005003700ba
:1015c800ee0090005e0090000088b9000000400026
:1015d800d0a688000000eb0050db8800411f2000e7
:1015e800000b21005e160700a1002000a0222100a8
:1015f8005b160700451607000000eb0060db88005b
:1016080011002000400020004008070010002000c2
:1016180060db8800aeff0700000f7800acff070012
:101628009e0f5000fdff32000f00370030db8000b6
:101638000000e00002003a00060407003800070036
:10164800d60107000000e000fdff320030db80001b
:10165800e50f5000010034007b00070030db8000fc
:101668000000e80030db880060db80000000e0005c
:10167800eeff3a0030db80000000e000010032009d
:10168800ee03070010da80000000e000fdff3200e2
:101698000000eb0010da8800f101070026020700bd
:1016a8002502070030da80001a13070040da8000ac
:1016b800551307008000eb004000200013080700c6
:1016c800e9ff37000080fa00000006000400fa0075
:1016d8000000eb00100798000b0037009e009000f8
:1016e800400620000088b900cf80de0003fc070018
:1016f800b4fc0700c5fb0700000f78001e0090002f
:101708000000e800100798009e009000f07022008a
:10171800808f5000f1ff34000080fa0000000600be
:101728000000fa00f0d9800067180700ea0f50009f
:10173800150034000000eb0040db88004006200064
:10174800f4120700c0f92f002f13070000da8000f9
:101758005d180700f40f5000fcff3c00dbff07009a
:10176800c02b2000eb120700c02b20002613070017
:10177800d6ff07000000eb00e61207000000eb00b0
:10178800211307002e003700e0d980004e1807000b
:10179800ea0f5000150034001000200040db8800dc
:1017a800c0f92f00db1207004006200016130700bf
:1017b800d0d9800044180700f40f5000fcff3c000b
:1017c800c2ff0700c02b2000d2120700c02b200048
:1017d8000d130700bdff07000000eb00cd12070046
:1017e8000000eb00081307001500370000da80003e
:1017f800351807008000780040062000808f5000d0
:1018080006003c00d0d980002f180700800078001f
:1018180040062000808f50000900340040ed2f0062
:10182800bc12070040ed2f00f7120700a7ff0700c2
:101838000000eb00b71207000000eb00f2120700ef
:101848000080fa00000006001000fa006000b800ee
:1018580060079800710798000000eb005007980097
:101868000000eb00400798003d003700ce009000d4
:1018780020f7200000804000104078008000fb0026
:10188800800f20000080600030079800ce00900094
:1018980020f7200000804000104078000000fb0086
:1018a800670060004501dd004e0090008000e80000
:1018b80020f7200000804000104078008000fb00e6
:1018c800000e2000008060004380de0000007100f0
:1018d800200798004e0090008000e80020f72000c4
:1018e80000804000104078000000fb007f0060008e
:1018f8004300dd0010079800be009000900520000e
:10190800808f500013003400ae0090006004200067
:10191800808f50000f003c009e0090006004200063
:10192800808f50000b003c004e0090006101b90010
:101938006e009000fe009000000041008180490088
:1019480060079800710798005e0090000000e800aa
:10195800500798004e0090000080e800400798006b
:10196800c1a680004e009000810f5000bfff3500d7
:101978005e0090000000e000480034005e00900027
:101988006101b9006e009000fe0090000efb070098
:101998000001be006118b9004f08de0001002000f8
:1019a80000004100818049008180d1000080d3007f
:1019b80060079800710798005e0090000000e00042
:1019c8000b0034006e019000fe019000f01320001f
:1019d80001002000800f5100818f590004003c0055
:1019e80011002000500020004807070003003700be
:1019f8008000eb0050002000440707005e009000c4
:101a08000000e0000b0034006e019000fe01900021
:101a1800f013200001002000800f5100818f590031
:101a280004003400110020003000200037070700b0
:101a3800030037008000eb00300020003307070068
:101a4800ee00900000142000010f5000f00020006c
:101a58009e0f100003003c0010ff2f009e0f100087
:101a68000c003d001e00e0000500340060ff2f0060
:101a780028120700a0002000631207001300370097
:101a8800a00020002312070060ff2f005e1207004d
:101a98000e0037000f0007000c00370040db800005
:101aa8000000e00005003200600420001912070061
:101ab800a0fb2f005412070004003700a0fb2f00e2
:101ac80014120700600420004f1207000080fa007b
:101ad800000006001400fa00881f78008000eb0060
:101ae80050002000090707008000eb0030002000ac
:101af80006070700c012200006120700c0122000c7
:101b08004112070020003700e0d980006e17070057
:101b180080007800800c2000808f50000a0034007c
:101b2800d0d980006817070080007800700c20006a
:101b3800808f500004003c00f9fe07000000eb0015
:101b4800000f98008f003700f0d980005e1707005b
:101b580080007800800c2000808f50000a0034003c
:101b680000da80005817070080007800700c200009
:101b7800808f500004003c00e9fe07000000eb00e5
:101b8800000f98007f00370000da80004e1707002a
:101b98008000780070bb2000808f500006003c0059
:101ba800d0d98000481707008000780070bb20005b
:101bb800808f5000d4ff34000000eb00100798001d
:101bc800190037009e009000400620000088b900e8
:101bd800000478006140b900c8fa0700600798005f
:101be800710798000800e00007003d00020020008f
:101bf800037824006e009000fe009000d3f90700df
:101c080060079800710798006e009000fe00900031
:101c18006cfb07009efa0700000f78001e0090007a
:101c28000000e800100798009e009000f070220065
:101c3800808f5000e3ff360080f32f00b5110700b6
:101c480080f32f00f01107000000eb001007980048
:101c5800190037009e009000400620000088b90057
:101c6800000478006140b900a4fa07004007980012
:101c7800510798000800e00007003d00020020001e
:101c8800037824004e009000de009000aff90700b2
:101c980040079800510798004e009000de00900021
:101ca80048fb07007afa0700000f78001e00900032
:101cb8000000e800100798009e009000f0702200d5
:101cc800808f5000e3ff360080f32f00911107004a
:101cd800800c2000cc110700d0d98000fa1607002c
:101ce8000000e000fcff3c000000eb00100798003b
:101cf800190037009e009000400620000088b900b7
:101d0800000478006140b9007cfa070020079800b9
:101d1800310798000800e00007003d00020020009d
:101d2800037824002e009000be00900087f9070079
:101d380020079800310798002e009000be00900000
:101d480020fb070052fa0700000f78001e009000e1
:101d58000000e800100798009e009000f0f92000ad
:101d6800808f5000e3ff36000000eb006911070088
:101d78000000eb00a41107000000eb0060db880006
:101d8800020037000e089000100f98001e089000ff
:101d98004f0478000080fa00000006000200fa00f4
:101da80050db80000000e00018003a006000b80036
:101db800f0da880001db880005e1a9000000eb00eb
:101dc80020088800411020009140780000c3b3002b
:101dd80000c0700004e1b7000000eb0000088800b4
:101de80000102e00100888008460a9008c60a800ec
:101df80005e1a80020f720000c170700d0a68000f6
:101e0800c0a688001000200050db880050db80004e
:101e18000000e0000d0032005f1707000000e0003e
:101e28000a00320005e1a9000000eb000008880064
:101e380005e1a80005e1a9000000eb0050db8800df
:101e480010002000000f7800020037000000eb00af
:101e5800000f78001e0078000080fa0000000600dd
:101e68000800fa00ab010700d0d98000bf000700c6
:101e780002002000a34724009efa070004fa070086
:101e880030079800e0d98000b80007000200200061
:101e9800a347240097fa0700fdf9070020079800d8
:101ea800f0d98000b100070002002000a3472400f9
:101eb80090fa0700f6f907001007980000da80008a
:101ec800aa00070002002000a347240089fa07009f
:101ed800eff90700000f78004801070057dbbf0043
:101ee8000000fb000a0007003e0090000800070001
:101ef8002e009000060007001e0090000400070056
:101f08001e007800020007000080fa0000000600aa
:101f18000200fa00000f78000e007800210020006f
:101f280056180700611807000000e000fdff3a009e
:101f38000080fa00000006000600fa00a801070069
:101f48002007980055dbbf008000fb002e009000a2
:101f5800808f50000500320056dbbf008000fb0078
:101f68002e009000808f500010003a009c0107005e
:101f7800100798009e00900080c12f00008f40003d
:101f880055dbbf008000fb002e009000808f5000c2
:101f980003003a001e00780030da88006c00370031
:101fa8001e00780040da88006900370054dbbf0063
:101fb8008000fb002e009000808f50004f003a00f8
:101fc80087010700200798004adbbf008000fb005c
:101fd8002e009000008060000000e0000d0032003c
:101fe8004edbbf008000fb002e00900000806000e8
:101ff8000000e00004003200110020000000eb00a7
:10200800c2050700030037008000eb000000eb006a
:10201800be0507004bdbbf008000fb002e009000d0
:10202800008060000000e0000d0032004fdbbf00c0
:102038008000fb002e009000008060000000e0009f
:10204800040032001100200010002000af05070036
:10205800030037008000eb0010002000ab050700ec
:102068004cdbbf008000fb002e0090000080600069
:102078000000e0000d00320050dbbf008000fb00d4
:102088002e009000008060000000e0000400320094
:1020980011002000200020009c05070003003700e5
:1020a8008000eb0020002000980507004ddbbf00f2
:1020b8008000fb002e009000008060000000e0001f
:1020c8002300320051dbbf008000fb002e0090008f
:1020d800008060000000e0000400320011002000d1
:1020e8003000200089050700190037008000eb0048
:1020f80030002000850507001500370052dbbf00bf
:102108008000fb002e009000808f500005003a00f0
:102118000000eb0030da88000000eb0040da8800ad
:102128000b00370058dbbf008000fb002e0090003a
:10213800808f500006003a001000200060db880005
:102148000000eb0030da88000000eb0040da88007d
:102158000080fa00000006000000fa0010002000cd
:1021680010da88000080fa00000006002400fa0057
:10217800889fbe00700f9800d1d980007e0890001b
:10218800810f500006003a00107b8000217b800000
:102198005af90700500f9800610f98001d0037008a
:1021a800e1d980007e089000810f500006003a00b7
:1021b800307b8000417b800050f90700500f980069
:1021c800610f980013003700f1d980007e08900055
:1021d800810f500006003a00507b8000617b800030
:1021e80046f90700500f9800610f98000900370062
:1021f80001da80007e089000810f500005003a0047
:10220800707b8000817b80003cf90700500f9800ac
:10221800610f9800c0d980000000e900c200dd000d
:10222800e0ab2100008040001000be005e09900075
:10223800ee099000f3f807000000e0000100350007
:10224800660037000000eb00400f98005f00370081
:102258004e089000c200dd00e0ab21000080400085
:102268001000be005e099000ee099000e5f8070036
:102278000000e00001003500510037004e089000d2
:102288000000e00005003a000000200001f82300eb
:102298000017980011179800530037004e08900057
:1022a8000000e900c200dd00e0ab21000080400032
:1022b8001001be00220f9800330f98004e089000be
:1022c800c200dd00e0ab2100008040001001be002c
:1022d800020f9800130f98000e0990009e099000b5
:1022e8005e089000ee08900017f807000004be0092
:1022f8000e0990009e0990002e089000be089000dc
:1023080011f807000001be000800be006cf80700c5
:1023180060079800710798004e089000c200dd0021
:10232800a0af2100008040001001be0042079800c5
:10233800530798004e0890000000e900c200dd0035
:10234800a0af2100008040001001be0022079800c5
:10235800330798004e019000de0190002e00900097
:10236800be009000f8f707006e019000fe01900093
:1023780060f907004e019000de019000f3f70700b6
:10238800008fbe00c0d980000000e900c200dd0057
:10239800a0af2100008040001001be001e00be005a
:1023a80047f807000001be000000200001f82300e4
:1023b800e5f7070000179800111798000a00370082
:1023c8004e0890000000e800400f9800c1d9800036
:1023d8004e089000810f50009dff35006000b80046
:1023e80000179800111798000e1090009e1090008a
:1023f8004f04be000080fa00000006000000fa004a
:102408006000b800107b8800217b88006000b8005d
:10241800307b8800417b88006000b800507b8800d2
:10242800617b88006000b800707b8800817b880031
:102438000000eb0020da88006000b800d0da8800dd
:10244800e1da88000080fa00000006000000fa00c7
:10245800889fbe0020da80000000e0002a003a00d1
:10246800187b8000297b8000d0d9800016150700d2
:10247800cf80de000800400089804800107b88007b
:10248800217b8800387b8000497b8000e0d9800070
:102498000d150700cf80de00080040008980480045
:1024a800307b8800417b8800587b8000697b8000f6
:1024b800f0d9800004150700cf80de000800400036
:1024c80089804800507b8800617b8800787b800089
:1024d800897b800000da8000fb140700cf80de00d3
:1024e8000800400089804800707b8800817b880054
:1024f800d0da8000e1da800061004000e080480026
:10250800d0da8800e1da88004f04be000080fa00c3
:10251800000006000000fa001000200020da880001
:10252800d0da8000e1da8000e00f5000e08f580038
:102538001d003400107b8000217b8000d2da8000ef
:10254800e3da800020f80700107b8800217b8800f0
:10255800307b8000417b8000d2da8000e3da8000a3
:1025680019f80700307b8800417b8800507b800089
:10257800617b8000d2da8000e3da800012f807007d
:10258800507b8800617b8800707b8000817b8000a5
:10259800d2da8000e3da80000bf80700707b88004d
:1025a800817b88000c0037006000b800107b880031
:1025b800217b88006000b800307b8800417b880060
:1025c8006000b800507b8800617b88006000b8001c
:1025d800707b8800817b88000080fa00000006007c
:1025e8000600fa000c0007000080fb002007980096
:1025f800090007000080fb00100798001e009000eb
:10260800c800dd002e009000008f70001e007800ca
:102618000080fa00000006000200fa000e007800b0
:10262800e41607000000e000fcff34001e407800bc
:102638000080fb000080fa00000006000000fa009d
:10264800d51507000000eb0030db88000080fa0099
:10265800000006000000fa009f1507001600200081
:10266800150020001400200013002000f22720008d
:10267800810720000000eb004b1507001100200027
:1026880010002000741507008a15070010002000ac
:1026980030db88000080fa00000006000200fa0023
:1026a800c51507000000eb00000f78000d0037008b
:1026b8009e00e800609e21000080400010407800e5
:1026c800004178009e007800609e21000080400054
:1026d8001040780080407800c0cdb300e2150700b4
:1026e8001e8fe8009e007800700d2000808f50003b
:1026f800efff3600b41507000080fa00000006005e
:102708000200fa00881f7800ab1507000000eb00f4
:10271800000f78000d0037001e04e8009e007800c6
:10272800609e2100008040001040780080407800c2
:10273800c0cdb300a815070080407800609e210036
:1027480000004400014878001e8fe8009e007800d1
:10275800700d2000808f5000efff36009a1507009b
:102768004f0478000080fa00000006000600fa0016
:10277800000f78001e007800200798002e009000b7
:10278800e10f50000a0032002e009000e20f5000c6
:102798000a0032002e0090000000e0000100320024
:1027a80009003700c0c0b30029fab7000900370094
:1027b80080c0b30029fab7000600370020c0b30074
:1027c80029fab700030037000080eb0010079800d3
:1027d800020037000000eb00100798001e00900070
:1027e8000080fa00000006000400fa00000f7800dc
:1027f800400420009e0f1000060032001001200047
:102808009e0f100003003200300320009e0f1000be
:1028180005003a001e00780019fab7000000eb0026
:1028280010079800020037000080eb00100798009e
:102838001e0090000080fa00000006000400fa0064
:10284800000f78001e00e000150032000002200092
:102858009e0f100012003200000320009e0f10008f
:102868000f003200000420009e0f10000c00320000
:10287800000520009e0f100009003200000620000d
:102888009e0f100006003200000620009e0f100068
:1028980003003200000120009e0f100005003a00de
:1028a8001e00780013fab7000000eb00100798002c
:1028b800020037000080eb00100798001e0090000f
:1028c8000080fa00000006000a00fa0020079800bd
:1028d80031079800ae0090003e009000808f5000b5
:1028e800030039000080eb00400798001e00370005
:1028f800be00900030382000808f50000300360062
:102908000080eb0040079800170037002e00900069
:102918000000e900200798002e009000204798004a
:102928002e0090004800de00304798003e009000de
:10293800004f78003e0090004800de0010479800e5
:102948003e409000eff9b7002e409000f1f9b70033
:102958001e409000f7f9b7001e407800f9f9b7005b
:102968000000eb00400798004e0090000080fa003d
:10297800000006000a00fa002007980031079800b6
:10298800ae0090003e009000808f50000300390098
:102998000080eb00400798001b003700be00900045
:1029a800301f2000808f5000030036000080eb00ad
:1029b80040079800140037002e0090002047980028
:1029c8002e0090004800de00304798003e0090003e
:1029d800004f78003e0090004800de001047980045
:1029e8003e409000f3f9b7002e409000f5f9b7008b
:1029f8001e409000fbf9b7001e407800fdf9b700b3
:102a08000000eb00400798004e0090000080fa009c
:102a1800000006000e00fa003007980041079800f1
:102a280052079800be0090004e009000808f500022
:102a3800030039000080eb00600798002b00370086
:102a4800ce009000301f2000808f50000300360019
:102a58000080eb006007980024003700de0090003b
:102a680030382000808f5000030036000080eb00d3
:102a7800600798001d0037003e009000404798000e
:102a88003e0090004800de00504798004e0090003d
:102a9800204798004e0090004800de00304798001c
:102aa8005e009000104798005e0090004800de002d
:102ab800004f78005e40900077fab7004e409000d3
:102ac80079fab7003e4090007bfab7002e4090009c
:102ad8007dfab7001e4078007ffab7001e409000cc
:102ae80081fab7000000eb00600798006e009000c4
:102af8000080fa00000006000600fa00100798009f
:102b0800210798001e0090000000e0000600320037
:102b18002e0090000000e00003003200a0ccb300bb
:102b2800004f78000e0037001e0090000000e00003
:102b380003003200a0c4b300004f7800080037003b
:102b48002e0090000000e00003003200a0c8b3008f
:102b5800004f780002003700a0c0b300004f780093
:102b68001e40780015fab7000080fa000000060041
:102b78000600fa0020479800314798000000eb0053
:102b8800000f7800100037009e007800609e21003a
:102b980000804000904078002e40900080cf500088
:102ba80008003a001e00e800619e21000100400074
:102bb800be409000014878000000eb002007980014
:102bc800070037001e8fe8009e007800700d200077
:102bd800808f5000ecff36008080eb0021079800c2
:102be8002e0090000080fa00000006000800fa009d
:102bf80020479800210798000000eb00000f78009c
:102c0800110037009e007800609e2100008040007f
:102c1800904078002e40900080cf500009003a0084
:102c28009e00e800609e21000080400090407800ef
:102c38002e009000014878000000eb003007980053
:102c4800070037001e8fe8009e007800700d2000f6
:102c5800808f5000ebff36000080eb0030079800b3
:102c68003e0090000080fa00000006000200fa0012
:102c7800004f7800114798001e409000fff9b700f8
:102c88001e40780001fab7000080fa000000060034
:102c98000800fa00004f7800114798002247980072
:102ca8003347980044479800f0c4b3009e4f100083
:102cb800030036000080eb00300798000c00370056
:102cc8001e40780003fab7001e40900005fab700ce
:102cd8002e40900007fab7004e40900009fab7005e
:102ce8003e4090000bfab7000000eb003007980058
:102cf8003e0090000080fa00000006000400fa0080
:102d0800008fbe001e00be004a09dd004600de003e
:102d180000007100c608de000ffab7001e00be00f2
:102d28004209dd004e00de0000007100ce08de0022
:102d38000dfab7000040eb0011fab7000080fa0066
:102d4800000006000200fa00004f78001e407800dc
:102d58001bfab7000080fa00000006000200fa0023
:102d6800000f78001e00e000050032002bdabf00db
:102d780001c8b300014070002bfab7000300370008
:102d88002bdabf000074a1002bfab7000080fa000c
:102d9800000006000400fa00004f78001147980070
:102da800224798001e4078002ffab7001e40900076
:102db80031fab7002e40900033fab7000080fa00cd
:102dc800000006000200fa00004f78001147980042
:102dd8001e4078007f4060000045b00035fab7001b
:102de8001e40900037fab7000080fa000000060085
:102df8000600fa0010079800414798004e409000de
:102e08000000fb00630060004500dd0080407800a2
:102e180000c8b30000c04000bdfab7000000eb00d6
:102e2800000f78000d0037001e00780000004000f9
:102e380032052000000141001e0078008000780063
:102e48001e0090000080400090407800609e2100a5
:102e580000004100014878001e0fe8001e007800bd
:102e6800e10f5000f0ff36000080fa000000060075
:102e78000000fa00d0130700bddabf000041780057
:102e8800bcdabf0080407800c0cdb300f61307005d
:102e9800cd130700e1a421009140780038dabf0083
:102ea800020007000080fa00000006000600fa0091
:102eb80040479800514798000000eb00000f780049
:102ec800bd1307000000eb00100798001f00370033
:102ed8009e009000609e2100008040009040780095
:102ee8004e40900080cf5000150039009e009000a1
:102ef800609e210000804000904078005e40900075
:102f080080cf50000e003e001e0090008000e800b8
:102f1800609e210000804000104078000041780049
:102f28009e009000609e21000080400010407800c4
:102f380080407800c0cdb300cb1307001e0fe80017
:102f48001e0090000080e800100798009e00900086
:102f5800700d2000808f5000ddff36009a130700a7
:102f68001e0078000080fa00000006000400fa0045
:102f7800100798000000eb00000f78000d003700e4
:102f88001e00780000004000b20620000001410049
:102f98001e007800800078001e009000008040002d
:102fa80090407800609e21000000410001487800b0
:102fb8001e0fe8001e007800e10f5000f0ff3600f9
:102fc8000080fa00000006000200fa00004f7800b6
:102fd800114798001e40780063fab7001e40900021
:102fe80065fab7000080fa00000006000200fa0047
:102ff800004f7800114798001e40780067fab70024
:103008001e40900069fab7000080fa000000060030
:103018000200fa00004f7800114798001e4078001f
:103028006bfab7001e4090006dfab7000080fa00f6
:10303800000006000200fa00004f78001e80fb0026
:103048004400dd006f40400083fab7000080fa00ba
:10305800000006000200fa00004f780011479800af
:103068001e80fb004400dd00804078001e40900078
:103078006f40600000c0400085fab7000080fa0089
:10308800000006000200fa00004f7800114798007f
:103098001e4090000080fb004400dd008040780066
:1030a8001e4078006f40600000c0400087fab700fb
:1030b8000080fa00000006000400fa00008fbe003d
:1030c8001e00be004088de00cf80de0089fab7000f
:1030d8001e00be004809dd004800de000000710047
:1030e800c888de008bfab7001e0078008dfab7009a
:1030f8000080fa00000006000200fa00004f780085
:103108001e4078008ffab7000080fa000000060021
:103118000400fa00000f7800110798001e007800dc
:103128004800de0095fab7001e00780097fab7004d
:103138001e0090004800de0099fab7001e009000bb
:103148009bfab7000080fa00000006000600fa00ab
:10315800004f78001147980022479800334798009d
:1031680044479800554798002e4090009dfab700b4
:103178003e4090009ffab7001e407800a1fab700c1
:103188001e409000a3fab7004e409000a5fab70081
:103198005e409000a7fab7000080fa000000060021
:1031a8000a00fa00000f780011079800220798001b
:1031b80033079800200d20001e0f40001e009000cd
:1031c800200db000100798002e0090006700400006
:1031d800200798003e0090006700400030079800e4
:1031e8009e00900020352000808f5000030036009c
:1031f8000080eb004007980039003700be009000bf
:10320800701e2000808f5000030036000080eb0005
:1032180040079800320037001e0090009e0f1000f3
:1032280004003100ae0090003e009000808f5000f6
:10323800030039000080eb004007980028003700a1
:10324800501a20009e0f10000c0036009e009000bf
:1032580090272000808f500008003e00ae009000ac
:10326800700a2000808f500004003600be009000d5
:1032780060142000808f5000030036000080eb00af
:1032880040079800160037001e0078004800de004e
:10329800a9fab7001e007800abfab7001e0090002c
:1032a8004800de00adfab7001e009000affab70084
:1032b8002e0090004800de00b1fab7002e00900002
:1032c800b3fab7003e0090004800de00b5fab70038
:1032d8003e009000b7fab7000000eb0040079800e6
:1032e8004e0090000080fa00000006000600fa0078
:1032f80010079800210798001e0090000000e000c9
:10330800060032002e0090000000e00003003200aa
:10331800c0c3b300004f78000e0037001e009000b5
:103328000000e00003003200c0c2b300004f780084
:10333800080037002e0090000000e0000300320073
:10334800c0c1b300004f780002003700c0c0b3000e
:10335800004f78001e407800b9fab7000080fa00e4
:10336800000006000200fa00000f78001e00e000ce
:10337800050032001ddabf00f1c7b300014060004c
:103388001dfab700040037001ddabf0001c8b300fa
:10339800014070001dfab7000080fa000000060026
:1033a8000400fa00000f7800110798001e00e000e2
:1033b800050032001ddabf00f1cbb3000140600008
:1033c8001dfab700040037001ddabf0001c4b300be
:1033d800014070001dfab7001e0090000000e000d8
:1033e800050032001ddabf00f1cdb30001406000d6
:1033f8001dfab700040037001ddabf0001c2b30090
:10340800014070001dfab7000080fa0000000600b5
:103418000a00fa0013dabf000080fb00400798009a
:1034280000032000ce009000808f50003100320051
:1034380000032000ce009000808f50000b003c005d
:103448004e009000f00f50002200320000022000d1
:10345800ce009000808f5000220032004e00900075
:103468000000e00017003200360037000005200099
:10347800ce009000808f500026003200000520000a
:10348800ce009000808f500005003c000004200012
:10349800ce009000808f50001a00320029003700bb
:1034a80000062000ce009000808f50001d003200e2
:1034b80000072000ce009000808f50001d003200d1
:1034c800200037000000280001072000008fbe0000
:1034d800200037000000200061092000008fbe0096
:1034e8001c0037000000240081032000008fbe006c
:1034f8001800370000002200c1012000008fbe0024
:103508001400370000002100e1002000008fbe00f9
:10351800100037000080200071002000008fbe00de
:103528000c0037000040280031002000008fbe004a
:103538000800370000202c0011002000008fbe007a
:10354800040037006000b800200798003107980091
:103558000a00370029dabf00ec4f500004003a0097
:103568001e00be000000400081804800008fbe00a1
:103578001e00be0020079800310798002e0090001a
:10358800be0090000080fa00000006001000fa005b
:1035980020079800310798004207980053079800c1
:1035a800640798005e0090000000e000030035000a
:1035b8005e009000e30f5000030034000080eb0031
:1035c800700798004e0037006e0090000000e00081
:1035d800030035006e009000e30f50000300340034
:1035e8000080eb00700798004500370088ff07004f
:1035f8000002be0084007800606a2000000bb8005a
:103608006020b9000701780000014100606a2000cd
:1036180000a8b90000014100820378002e00900044
:103628006101b9000600be00e7f307001007980023
:1036380077ff07000002be0084007800606a20005f
:10364800000bb8006020b9000701780000014100b4
:10365800606a200000a8b9000001410082037800d8
:103668003e0090006101b9000600be00d6f30700d5
:10367800000f78001e0090004800de0021fab70015
:103688001e00900023fab7001e0078004800de00f4
:1036980025fab7001e00780027fab7004e00900000
:1036a8000000e000040032001ddabf000044a00062
:1036b8001dfab700040037001ddabf00f1ceb300d1
:1036c800014060001dfab7006e009000e340600002
:1036d8005e009000630060004200dd0000c1400011
:1036e8001ddabf008040780000cfb30000c0600042
:1036f800004041001dfab7000000eb007007980079
:103708007e0090000080fa00000006000600fa0023
:10371800000f7800110798001e0078002007980015
:103728002e009000e30f5000670032002e0090003a
:10373800e30f500007003e002e009000e10f5000fc
:103748002e0032002e009000e10f500041003e0094
:103758000d0037002e009000e50f50009400320055
:103768002e009000e50f5000740039002e009000e4
:10377800e60f5000ab0032002e009000e70f50001b
:10378800c5003200da0037001e009000e10f50003b
:103798000f003600c4c2bf000080fb004600de00f8
:1037a800614060000004a200614060006140600068
:1037b8004601dd00412c200091407800f0cbb30099
:1037c80000c0600002407000c4e2b7001e0137006c
:1037d8001e00900061406000614060004601dd000d
:1037e800412c200091407800f0cbb30000c060006d
:1037f80002407000c4e2b700130137001e009000b9
:10380800e10f50000b003600c4c2bf000080fb006f
:103818004700de000004a20061406000c700dd0030
:10382800c4c2bf000074a10001407000c4e2b70028
:10383800050137001e00900061406000c700dd00f0
:10384800c4c2bf000074a10001407000c4e2b70008
:10385800fd0037001e009000e10f50000f003600f9
:10386800c5c2bf000080fb000000d10061406000bd
:103878000004a20061406000614060000041400017
:10388800512c200091407800d0cfb30000c06000d8
:1038980002407000c5e2b700eb0037001e00900040
:1038a800614060006140600000414000512c2000f0
:1038b80091407800d0cfb30000c060000240700093
:1038c800c5e2b700e00037001e009000e10f50008d
:1038d8000f003600c5c2bf000080fb004400de00b8
:1038e800614060000004a200614060006140600027
:1038f8004401dd00512c200091407800f0ceb30047
:1039080000c0600002407000c5e2b700ce0037007a
:103918001e00900061406000614060004401dd00cd
:10392800512c200091407800f0ceb30000c0600018
:1039380002407000c5e2b700c30037001e009000c7
:10394800e10f50000f003600c5c2bf000080fb0029
:103958004200de00614060000004a2006140600097
:10396800614060004201dd00512c20009140780048
:10397800b0cfb30000c0600002407000c5e2b700dd
:10398800b10037001e009000614060006140600097
:103998004201dd00512c200091407800b0cfb300e7
:1039a80000c0600002407000c5e2b700a600370002
:1039b8001e009000e10f50000f003600c5c2bf0086
:1039c8000080fb004500de00614060000004a200aa
:1039d80061406000614060004501dd00512c20001d
:1039e80091407800f0cdb30000c060000240700044
:1039f800c5e2b700940037001e00900061406000e7
:103a0800614060004501dd00512c200091407800a4
:103a1800f0cdb30000c0600002407000c5e2b700fe
:103a2800890037001e009000e10f50000f0036009b
:103a3800c5c2bf000080fb004600de006140600098
:103a48000004a20061406000614060004601dd00a2
:103a5800512c200091407800f0cbb30000c06000ea
:103a680002407000c5e2b700770037001e009000e2
:103a780061406000614060004601dd00512c20007b
:103a880091407800f0cbb30000c0600002407000a5
:103a9800c5e2b7006c0037001e009000e10f50002f
:103aa8000b003600c5c2bf000080fb004700de00e7
:103ab8000004a20061406000c700dd00c5c2bf006d
:103ac8000074a10001407000c5e2b7005e00370035
:103ad8001e00900061406000c700dd00c5c2bf0045
:103ae8000074a10001407000c5e2b700560037001d
:103af8001e00900061406000c700dd00c5c2bf0025
:103b08000074a10001407000c5e2b700c5c2bf0043
:103b18000080fb004700de00614060004601dd00d8
:103b2800512c200091407800f0cbb30000c0600019
:103b380002407000c5e2b700c5c2bf000080fb00ac
:103b48004600de0061406000614060004501dd0024
:103b5800512c200091407800f0cdb30000c06000e7
:103b680002407000c5e2b700c5c2bf000080fb007c
:103b78004500de0061406000614060004201dd00f8
:103b8800512c200091407800b0cfb30000c06000f5
:103b980002407000c5e2b700c5c2bf000080fb004c
:103ba8004200de0061406000614060004401dd00c9
:103bb800512c200091407800f0ceb30000c0600086
:103bc80002407000c5e2b700c5c2bf000080fb001c
:103bd8004400de0061406000614060000041400038
:103be800512c200091407800d0cfb30000c0600075
:103bf80002407000c5e2b700c5c2bf000080fb00ec
:103c08000000d10061406000c700dd00c4c2bf00f1
:103c18000074a10001407000c4e2b700c4c2bf0034
:103c28000080fb004700de00614060004601dd00c7
:103c3800412c200091407800f0cbb30000c0600018
:103c480002407000c4e2b7000080fa0000000600dd
:103c58000000fa00c4c2a900c4e2a900c522a90054
:103c6800c582a900c542a900c5a2a900c5c2a9006c
:103c7800c5e2a9000080fa00000006000200fa0070
:103c8800000f7800100020009e0f10000f00360073
:103c9800d0c2bf000080fb004200de00614060002f
:103ca8000004a20061406000614060004201dd0044
:103cb800012d200091407800b0cfb30000c0600013
:103cc80002407000d0e2b7000a0037001e007800fa
:103cd80061406000614060004201dd00012d20006c
:103ce80091407800b0cfb30000c06000024070007f
:103cf800d0e2b7000080fa00000006000200fa00d7
:103d0800000f7800100020009e0f10000f003600f2
:103d1800d0c2bf000080fb000000d10061406000fd
:103d28000004a20061406000614060000041400062
:103d3800012d200091407800d0cfb30000c0600072
:103d480002407000d0e2b7000a0037001e00780079
:103d5800614060006140600000414000012d20008a
:103d680091407800d0cfb30000c0600002407000de
:103d7800d0e2b7000080fa00000006000000fa0058
:103d8800c4c2bf000080fb004600de006140600046
:103d980000c0ea0061406000614060004601dd004b
:103da800412c200091407800f0cbb30000c06000a7
:103db80002407000c4e2b700c4c2bf000080fb002c
:103dc8004700de0000c0ea0061406000c700dd0077
:103dd800c4c2bf000074a10001407000c4e2b70073
:103de800c5c2bf000080fb000000d1006140600038
:103df80000c0ea006140600061406000004140008e
:103e0800512c200091407800d0cfb30000c0600052
:103e180002407000c5e2b700c5c2bf000080fb00c9
:103e28004400de006140600000c0ea0061406000bc
:103e3800614060004401dd00512c20009140780071
:103e4800f0ceb30000c0600002407000c5e2b700c9
:103e5800c5c2bf000080fb004200de006140600078
:103e680000c0ea0061406000614060004201dd007e
:103e7800512c200091407800b0cfb30000c0600002
:103e880002407000c5e2b700c5c2bf000080fb0059
:103e98004500de006140600000c0ea00614060004b
:103ea800614060004501dd00512c20009140780000
:103eb800f0cdb30000c0600002407000c5e2b7005a
:103ec800c5c2bf000080fb004600de006140600004
:103ed80000c0ea0061406000614060004601dd000a
:103ee800512c200091407800f0cbb30000c0600056
:103ef80002407000c5e2b700c5c2bf000080fb00e9
:103f08004700de0000c0ea0061406000c700dd0035
:103f1800c5c2bf000074a10001407000c5e2b7002f
:103f28000080fa00000006000000fa00c4c2bf00ca
:103f38000080fb004600de006140600000c0ea002f
:103f480061406000614060004601dd00412c2000b6
:103f580091407800f0cbb30000c0600002407000d0
:103f6800c4e2b7000080fa00000006000000fa0072
:103f7800c4c2bf000080fb004700de0000c0ea00aa
:103f880061406000c700dd00c4c2bf000074a1002a
:103f980001407000c4e2b7000080fa00000006008b
:103fa8000000fa00c5c2bf000080fb000000d1007d
:103fb8006140600000c0ea0061406000614060004c
:103fc80000414000512c200091407800d0cfb30030
:103fd80000c0600002407000c5e2b7000080fa002f
:103fe800000006000000fa00c5c2bf000080fb0008
:103ff8004400de006140600000c0ea0061406000eb
:10400800614060004401dd00512c2000914078009f
:10401800f0ceb30000c0600002407000c5e2b700f7
:104028000080fa00000006000000fa00c5c2bf00c8
:104038000080fb004200de006140600000c0ea0032
:1040480061406000614060004201dd00512c2000a9
:1040580091407800b0cfb30000c06000024070000b
:10406800c5e2b7000080fa00000006000000fa0070
:10407800c5c2bf000080fb004500de006140600053
:1040880000c0ea0061406000614060004501dd0059
:10409800512c200091407800f0cdb30000c06000a2
:1040a80002407000c5e2b7000080fa000000060078
:1040b8000000fa00c5c2bf000080fb004600de0019
:1040c8006140600000c0ea0061406000614060003b
:1040d8004601dd00512c200091407800f0cbb30060
:1040e80000c0600002407000c5e2b7000080fa001e
:1040f800000006000000fa00c5c2bf000080fb00f7
:104108004700de0000c0ea0061406000c700dd0033
:10411800c5c2bf000074a10001407000c5e2b7002d
:104128000080fa00000006000200fa00000f780084
:104138009e00780020ec2100890b07000080fa001f
:10414800000006000000fa0020ec2100b40b070074
:104158000080fa00000006000200fa00000f780054
:104168001e00e000030035009e00780020ec2100ce
:10417800d30b07000080fa00000006000000fa00d8
:104188001adcbf000004e0000b003a008000eb00de
:10419800700020005dfd07001adcbf000080fb00f6
:1041a8001100200059fd07001adcbf000040e8009c
:1041b8001afcb7001b0037001adcbf00e74f50009d
:1041c8000c003a001adcbf000080fb000000e90088
:1041d8008000eb004dfd07001adcbf000080fb00eb
:1041e8001100200049fd07000040eb001afcb70051
:1041f8000c0037001adcbf000080fb000000e9005b
:104208008000eb0041fd07001adcbf000080fb00c6
:10421800110020003dfd07001adcbf000040e80047
:104228001afcb7000080fa00000006000200fa003d
:104238001bdcbf000080fb00000f78001e00780028
:10424800e20f50001c0032001e007800e20f500000
:1042580007003c001e0078000000e0000b00320060
:104268001e007800e10f50000c00320023003700d8
:104278001e007800e30f5000160032001e00780080
:10428800e40f50001a0032001c0037002100200003
:104298000000eb001dfd070018003700210020007a
:1042a8001000200019fd07002100200070002000e8
:1042b80016fd070011003700210020002000200013
:1042c80012fd070021002000600020000ffd0700fc
:1042d8000a00370021002000300020000bfd0700f5
:1042e800210020005000200008fd070003003700cf
:1042f800210020004000200004fd07001bdcbf0057
:10430800e34f500004003e001bdcbf000040e80003
:104318001bfcb700020037000040eb001bfcb70095
:104328000080fa00000006000000fa001cdcbf0054
:104338000004e0000f003a0034dcbf000004e00095
:104348000c00320010c0b3001cfcb7008000eb006a
:104358000000eb00edfc07001cdcbf000080fb0048
:1043680011002000e9fc07000040eb0034fcb70016
:104378002b0037001cdcbf000004e0000f003a00ef
:1043880034dcbf000004e0000c003a0070c0b30049
:104398001cfcb7008000eb000000eb00dbfc070012
:1043a8001cdcbf000080fb0011002000d7fc0700c8
:1043b80010c0b30034fcb700190037001cdcbf0084
:1043c800e74f50000a003a000040eb001cfcb70021
:1043d8008000eb0070002000ccfc07001cdcbf0054
:1043e8000080fb0011002000c8fc07000c0037000b
:1043f8001cdcbf00e14f500009003a000040eb0010
:104408001cfcb7008000eb0010002000bffc070078
:104418001cdcbf000080fb0011002000bbfc070073
:104428000080fa00000006000200fa001ddcbf0050
:104438000080fb00000f78001e007800e10f50009c
:10444800150032001e007800e10f500004003c0007
:104458001e0078000000e000080032001a00370053
:104468001e007800e20f5000120032001e00780093
:10447800e30f500013003200130037002100200022
:104488000000eb00a1fc07002100200040002000f4
:104498009efc07000c0037002100200010002000bf
:1044a8009afc0700210020003000200097fc07003c
:1044b80005003700210020002000200093fc0700a1
:1044c80001003700e2fd07001ddcbf00e24f50008d
:1044d80004003e001ddcbf000040e8001dfcb700e2
:1044e800020037000040eb001dfcb7000080fa0016
:1044f800000006000200fa001edcbf000080fb007e
:10450800000f78001e007800e10f500015003200ff
:104518001e007800e10f500004003c001e007800e7
:104528000000e000080032001a0037001e00780082
:10453800e20f5000120032001e007800e30f500016
:104548001300320013003700210020000000eb00a8
:104558006efc070021002000400020006bfc0700d3
:104568000c003700210020007000200067fc0700c5
:10457800210020005000200064fc070005003700df
:10458800210020006000200060fc070001003700c7
:10459800affd07001edcbf00e24f500004003e00e4
:1045a8001edcbf000040e8001efcb7000200370018
:1045b8000040eb001efcb7000080fa000000060077
:1045c8000200fa00004f780010c0b3009e4f1000a0
:1045d80003003a0010c0b30002e8b7000200370039
:1045e8000040eb0002e8b7000000eb00001588006f
:1045f8000000eb00101588000000eb002015880073
:104608000000eb0030158800a802a800a822a80026
:10461800a842a900a862a900a882a900a8a2a90086
:10462800a8c2a900a8e2a900a902a900a922a90074
:10463800a942a900a962a900a982a900a9a2a90062
:10464800a9c2a900a9e2a900aa02a900aa22a90050
:10465800aa42a800aa62a800aa82a800aaa2a90041
:10466800aac2a900aae2a900ab02a900ab22a9002c
:10467800ab42a900ab62a900ab82a900aba2a9001a
:10468800abc2a900abe2a900112a20009140780032
:10469800c0cfb30000c06000a1e2b700a042a800ec
:1046a800012a20009140780000ceb30000c07000bd
:1046b800a0e2b700212a20009140780030ccb30056
:1046c80000c060000034a000a2e2b700a342a80026
:1046d800512a20009140780000ceb30000c060004d
:1046e8000004a000a5e2b70002c8bf000004e00073
:1046f80007003200412a20009140780000ccb30026
:1047080000c060003041b300a4e2b70007003700e2
:10471800412a20009140780000ccb30000c060001e
:1047280071c2b30001407000a4e2b7008560a9001f
:104738008d60a800a1e2a80002c8bf000004e00044
:1047480005003a000000000071e18000000320002d
:10475800808f5000fbff36000080fa000000060042
:10476800809fbe00821f78003400f80000002000ff
:10477800a00188000c00fa000040eb0000e8b70038
:104788000040eb0001e8b7008560a90002c8bf003f
:104798000004e0002d00320000282000000f7800ff
:1047a80061e180001e0078001000780000017800a8
:1047b800818040006080200000804000020878006e
:1047c8001e8fe80061e180001e007800100078006c
:1047d8000001780001804000012020008080400016
:1047e8006080200000804000020878001e8fe800ea
:1047f80061e180001e007800100078000001780058
:1048080081804000004020008080400060802000bf
:1048180000804000020878001e8fe80060e18000f8
:104828000000e80060e1880061e18000f00f2000ee
:10483800808f50006f0136000000eb0060e18800b7
:1048480010c0b30001e8b7006a013700c0012000ba
:1048580050158800212a20009140780030ccb30000
:1048680000c060000034a000a2e2b700412a200086
:104878009140780000ccb30000c0600071c2b30062
:1048880001407000a4e2b700418020009140780008
:10489800d0c3b30080cf50000f003a00c00f2000f3
:1048a80050158800212a20009140780030ccb300b0
:1048b80000c060004041b300a2e2b700412a2000d6
:1048c8009140780000ccb30000c060003041b300d4
:1048d800a4e2b7005f0037004180200091407800d3
:1048e800e0c3b30080cf50002c003a00212a2000fa
:1048f8009140780030ccb30000c060000044a000b4
:10490800a2e2b700412a20009140780000ccb30011
:1049180000c060007041b300a4e2b70003c8bf0044
:104928000080fb00500798005e009000e10f5000e7
:1049380011003200de009000e18f500004003c00be
:104948005e0090000000e0000800320041003700df
:10495800de009000e28f50000a0032005e009000f6
:10496800e30f50000a0032003a003700c01121005e
:104978005015880037003700c021220050158800e4
:1049880034003700c041240050158800310037003a
:10499800c0812800501588002e00370004c8bf00c9
:1049a800e24f50002b003a00212a20009140780065
:1049b80030ccb30000c060000044a000a2e2b70001
:1049c800412a20009140780000ccb30000c060006c
:1049d8007041b300a4e2b70003c8bf000080fb0029
:1049e80040079800ce009000e18f5000110032007f
:1049f8004e009000e10f500004003c00ce009000f3
:104a08000100e00008003200120037004e0090005c
:104a1800e20f50000a003200ce009000e38f5000f1
:104a28000a0032000b003700c01121005015880021
:104a380008003700c0212200501588000500370003
:104a4800c04124005015880002003700c0812800aa
:104a58005015880000282000000f780061e18000d0
:104a68001e00780010007800000178008180400066
:104a78006080200000804000020878001e8fe80057
:104a880061e180001e0078001000780000017800c5
:104a980001804000012020008080400060802000cc
:104aa80000804000020878001e8fe80061e1800065
:104ab8001e00780010007800000178008180400016
:104ac800004020008080400060802000008040007e
:104ad800020878001e8fe80060e180000000e8000e
:104ae80060e1880061e18000f00f2000808f5000b5
:104af800020036000000eb0060e1880041802000e1
:104b080091407800e0c3b30080cf500028003a00fd
:104b180070e180000000e80070e1880071e1800029
:104b280010032000808f5000020036000000eb00c8
:104b380070e1880071e180001e00780010007800a4
:104b4800000178008180400060e020000080400083
:104b5800020878001e8fe80071e180001e007800ce
:104b68001000780000017800018040004106200014
:104b78008080400060e0200000804000020878004b
:104b88001e8fe80071e180001e0078001000780098
:104b98000001780001804000810c200080804000e6
:104ba80060e0200000804000020878007f003700a5
:104bb8004180200091407800f0c3b30080cf5000be
:104bc80038003a0003c8bf000080fb003007980097
:104bd8003e009000e10f500017003200be00900028
:104be800e18f500004003c003e0090000000e0000f
:104bf800080032006d003700be009000e28f5000c0
:104c0800160032003e009000e30f50001c003200f6
:104c1800660037001e007800100078009079880040
:104c28001e8fe8001e00780010007800d0798800f8
:104c3800e2e2a8005d0037001e007800100078004e
:104c4800a07988001e8fe8001e0078001000780008
:104c5800e0798800e302a800540037001e007800bd
:104c680010007800b07988001e8fe8001e007800d8
:104c780010007800f0798800e802a8004b0037009f
:104c88001e00780010007800c07988001e8fe800a8
:104c98001e00780010007800007a8800e822a8003a
:104ca8004200370004c8bf00e34f50003f003a00fd
:104cb80003c8bf000080fb0020079800ae009000ea
:104cc800e18f5000190032002e009000e10f5000d3
:104cd80004003c00ae0090000100e0000800320033
:104ce800320037002e009000e20f50001a00320008
:104cf800ae009000e38f5000220032002b003700f6
:104d08001e00780010007800107a88001e8fe800d6
:104d18001e00780010007800507a8800e2e2a900ae
:104d280010c0b30003e8b700200037001e00780069
:104d380010007800207a88001e8fe8001e00780096
:104d480010007800607a8800e302a90020c0b30050
:104d580003e8b700150037001e007800100078003f
:104d6800307a88001e8fe8001e0078001000780056
:104d7800707a8800e802a90030c0b30003e8b700e1
:104d88000a0037001e00780010007800407a88007a
:104d98001e8fe8001e00780010007800807a8800d6
:104da800e822a9000040eb0003e8b70004c8bf00f0
:104db800304798008040eb0021479800f0c3b300cb
:104dc800be40900080cf50000200360010c0b300f3
:104dd80020479800be4090000140e80004e8b70072
:104de8002e4090000004e000020032000040eb007a
:104df80004e8b70010c0b30000e8b7000080fa006c
:104e08003400f9004f0178004f00be000040060052
:104e18000000fa0000c8bf000080fb000080fa0014
:104e2800000006000000fa0001c8bf000080fb0077
:104e38000080fa00000006000000fa00a1e2a800c5
:104e48000080fa00000006000000fa00a1e2a900b4
:104e58000080fa00000006000000fa000000370099
:104e680006c2bf00614060000004e000fcff3a0099
:104e780006c2bf00644060000004e000f8ff3a008a
:104e880006c2bf00684060000004e000f4ff3a007a
:104e980006c2bf00704060000004e000f0ff3a0066
:104ea80009c2bf000044b2000004e000ecff3a0071
:104eb8000080fa00000006000400fa0060092000e3
:104ec8002010880007e2a90007e2a80085c0a90011
:104ed80085a0a900b10920009140780080cfb300d7
:104ee80000c060005040b3009be0b7008da0a9004f
:104ef8000071220001002000008fbe00040037006e
:104f08000080eb008080eb001e0f40005e97480099
:104f18001e00be00e00f5000e08f5800f8ff3a0076
:104f2800100020000080fa00000006000400fa00cb
:104f38006000b800008fbe0007e2a90085c0a90084
:104f480085a0a9008da0a900007122000100200001
:104f5800008fbe00040037000080eb008080eb006b
:104f68001e0f40005e9748001e00be00e00f500074
:104f7800e08f5800f8ff3a00cfff07000f00070046
:104f88000071220001002000008fbe0004003700dd
:104f98000080eb008080eb001e0f40005e97480009
:104fa8001e00be00e00f5000e08f5800f8ff3a00e6
:104fb800100020000080fa00000006000000fa003f
:104fc80085c0a9008dc0a800100020000080fa004c
:104fd800000006000000fa0085c0a9008dc0a900e5
:104fe800100020000080fa00000006000600fa0009
:104ff80010c0b30012fcb70008c2bf0070406000c8
:105008000004e000160032000602a8000071220029
:1050180001002000008fbe000a00370012dcbf002c
:105028000004e00003003a00100020002007980068
:105038000d0037000080eb008080eb001e0f400061
:105048005e9748001e00be00e00f5000e08f580039
:10505800f2ff3a008000eb002107980002003700b9
:105068000000eb00200798002e0090000080fa0056
:10507800000006000600fa0060c0b30012fcb7008a
:1050880008c2bf00684060000004e000160032005b
:105098000622a8000071220001002000008fbe0037
:1050a8000a00370012dcbf000004e00003003a00e9
:1050b80010002000200798000d0037000080eb004a
:1050c8008080eb001e0f40005e9748001e00be0067
:1050d800e00f5000e08f5800f2ff3a008000eb002c
:1050e80021079800020037000000eb002007980015
:1050f8002e0090000080fa00000006000600fa006a
:1051080050c0b30012fcb7000642a800007122008c
:1051180001002000008fbe000a00370012dcbf002b
:105128000004e00003003a00100020002007980067
:105138000a0037000080eb008080eb001e0f400063
:105148005e9748001e00be00e00f5000e08f580038
:10515800f2ff3a008000eb00210798002e00900033
:105168000080fa00000006000600fa0030c0b30014
:1051780012fcb70006c2bf00614060000004e000f6
:1051880010003a0006c2bf00644060000004e0005e
:105198000c003a0006c2bf00684060000004e0004e
:1051a80008003a0006c2bf00704060000004e0003a
:1051b80004003a0006c2bf00624060000004e0003c
:1051c800030032000000eb002007980016003700ab
:1051d80006a2a9000682a800007122000100200092
:1051e800008fbe000a00370012dcbf000004e00098
:1051f80003003a0011002000210798000a00370038
:105208000080eb008080eb001e0f40005e97480096
:105218001e00be00e00f5000e08f5800f2ff3a0079
:105228008000eb00210798002e0090000080fa0013
:10523800000006000600fa0030c0b30012fcb700f8
:1052480006c2bf00614060000004e00010003a00a0
:1052580006c2bf00644060000004e0000c003a0091
:1052680006c2bf00684060000004e00008003a0081
:1052780006c2bf00704060000004e00004003a006d
:1052880006c2bf00624060000004e0000300320074
:105298000000eb00200798001600370006a2a800bf
:1052a8000682a8000071220001002000008fbe00c5
:1052b8000a00370012dcbf000004e00003003a00d7
:1052c80011002000210798000a0037000080eb0039
:1052d8008080eb001e0f40005e9748001e00be0055
:1052e800e00f5000e08f5800f2ff3a008000eb001a
:1052f800210798002e0090000080fa0000000600a8
:105308000a00fa003007980000712200010020000e
:1053180010079800210798000040eb00004f780024
:1053280040c0b30012fcb700007122000100200049
:1053380010079800210798001d00370006c2bf001b
:10534800614060000004e00013003a0006c2bf009c
:10535800644060000004e0000f003a0006c2bf008d
:10536800684060000004e0000b003a0006c2bf007d
:10537800704060000004e00007003a0009c2bf0066
:105388000044b2000004e00003003a0010c0b3007b
:10539800004f78000b0037001e009000ae00900010
:1053a80061005000e080580010079800210798001d
:1053b8001e009000ae009000e00f5000e08f5800f3
:1053c800deff3a001e04e00003003a000000eb0094
:1053d800400798001d0037000662a800006a2800f0
:1053e80011002000100798002107980010003700ce
:1053f80012dcbf000004e00007003a000010800043
:10540800804078003e00900001487800100020009d
:10541800400798000d0037001e009000ae00900075
:1054280061005000e080580010079800210798009c
:105438001e009000ae009000e00f5000e08f580072
:10544800ebff3a000000eb00400798004e00900088
:105458000080fa00000006000800fa0040479800a3
:1054680020c0b30012fcb7004e4090000000fb00c3
:10547800101088000071220001002000008fbe007b
:105488000a00370012dcbf000004e00003003a0005
:1054980010002000300798000a0037000080eb0059
:1054a8008080eb001e0f40005e9748001e00be0083
:1054b800e00f5000e08f5800f2ff3a008000eb0048
:1054c800310798003e0090000080fa0000000600b6
:1054d800801f78003400f80000002000a001880038
:1054e8000000fa0085c0a9000040eb0012fcb700dc
:1054f8000080fa003400f9004f00780000400600f0
:105508000200fa00004f78002b0a07001e417800bd
:1055180031c0b300c0cdb300530a07002a0a070000
:105528000080fa00000006000400fa00004f78002e
:1055380011479800224798001e407800f0ff0700a6
:105548001d0a07002e4190009e409000c0cdb30078
:10555800450a07001c0a07000080fa000000060040
:105568000400fa0020479800314798002e40900028
:10557800e3ff0700100a0700be409000c0cdb3004b
:10558800150a0700004f78000f0a07001e80fb006d
:105598000080fa00000006000200fa00004f7800c0
:1055a8001e41780011c9b3000040eb00deff070080
:1055b8000080fa00000006000200fa00004f7800a0
:1055c8001e41780081c6b30010c0b300d6ff0700a3
:1055d8000080fa00000006000600fa00004f78007c
:1055e8001e80fb002007980000042000ae009000f9
:1055f800808f50001a00320000082000ae00900092
:10560800808f50002700320000022000ae0090007a
:10561800808f5000010032003300370010c0b30003
:10562800e5ff07001e41780001c8b30010c0b300b1
:10563800bdff07001e41780011c8b30010c0b300b9
:10564800b9ff070012c0b30021c8b30010c0b300ef
:10565800b5ff07000000eb00100798002400370092
:1056680030c0b300d4ff07001e41780001c8b30062
:1056780010c0b300acff07001e41780011c8b3008a
:1056880010c0b300a8ff070012c0b30021c8b300c0
:1056980010c0b300a4ff07008000eb0011079800ba
:1056a8001300370070c0b300c3ff07001e41780025
:1056b80001c8b30010c0b3009bff07001e4178006b
:1056c80011c8b30010c0b30097ff070012c0b300a1
:1056d80021c8b30010c0b30093ff07000000eb001f
:1056e80010079800020037008080eb00110798002f
:1056f8001e0090000080fa00000006000600fa0074
:10570800004f78001e80fb0020079800000420004e
:10571800ae009000808f50001a0032000008200070
:10572800ae009000808f5000270032000002200059
:10573800ae009000808f5000010032003300370027
:105748000040eb009cff07001e41780001c8b30031
:1057580010c0b30074ff07001e41780011c8b300e1
:1057680010c0b30070ff070012c0b30021c8b30017
:1057780010c0b3006cff07000000eb001007980092
:105788002400370010c0b3008bff07001e417800cb
:1057980001c8b30010c0b30063ff07001e417800c2
:1057a80011c8b30010c0b3005fff070012c0b300f8
:1057b80021c8b30010c0b3005bff07008000eb00f6
:1057c800110798001300370030c0b3007aff0700b4
:1057d8001e41780001c8b30010c0b30052ff070093
:1057e8001e41780011c8b30010c0b3004eff070077
:1057f80012c0b30021c8b30010c0b3004aff0700ad
:105808000000eb0010079800020037008080eb00d2
:10581800110798001e0090000080fa0000000600a2
:105828000600fa00004f7800114798001e80fb0020
:10583800200798002e009000e10f50000f00320062
:105848002e009000e20f5000140032002e0090004d
:105858000000e0000100320018003700d2c0b30099
:1058680081c3b30010c0b3002fff07001e40900093
:1058780059ff0700100798001200370082c0b300d4
:1058880081c3b30010c0b30027ff07001e4090007b
:105898009aff0700100798000a00370022c0b300db
:1058a80081c3b30010c0b3001fff07001e40900063
:1058b80092ff070010079800020037000080eb00f5
:1058c800100798001e0090000080fa0000000600f3
:1058d8000a00fa002007980031079800ae009000ef
:1058e8003e009000808f5000030039000080eb00dc
:1058f800400798001e003700be009000f0312000dd
:10590800808f5000030036000080eb0040079800ad
:10591800170037002e0090000000e90020079800cb
:105928002e009000204798002e0090004800de00ce
:10593800304798003e009000004f78003e009000ed
:105948004800de00104798002e41900011c5b300b2
:1059580010c0b300f4fe07003e41900001c5b3003b
:1059680010c0b300f0fe07000000eb0040079800ed
:105978004e0090000080fa00000006000800fa00bf
:1059880020079800310798000000eb000080fa001b
:10599800000006000a00fa00200798003107980066
:1059a800ae0090003e009000808f50000300390048
:1059b8000080eb004007980023003700be009000ed
:1059c800301f2000808f5000030036000080eb005d
:1059d800400798001c0037002e00900020479800d0
:1059e8002e0090004800de00304798003e009000ee
:1059f800004f78003e0090004800de0010479800f5
:105a08003e41900001c6b30010c0b300c6fe0700b7
:105a18002e41900011c6b30010c0b300c2fe0700ab
:105a28001e41900021c6b30010c0b300befe07009f
:105a38001e41780031c6b30010c0b300bafe07009b
:105a48000000eb00400798004e0090000080fa002c
:105a5800000006000200fa00000f780012c0b30030
