:020000040000fa
:080000000001040000000000f3
:020000040000fa
:100200004fab2100007922000001880000000000af
:100210000c000700003b2300010020001100070034
:10022000000020000000e000020032000000020098
:100230000000000022230200000000000040da005d
:100240000000fe004440a900400320000000e00040
:100250000300320000002000a00188004440a800f4
:100260000000060091018800800078000000eb008b
:1002700015003700e280400032a0b4009101ba00be
:10028000e280400032a0b4009102ba00e280400057
:1002900032a0b4000002eb00472bde00f507b200ed
:1002a000602ce10004003a000059eb008301e900f2
:1002b000fdff3e00040037006128e100010032002c
:1002c0000082eb00040007001101ba000200e00008
:1002d000e8ff3a00000006003159ba008301e90046
:1002e0000c0032002159ba008301e90008003200f5
:1002f0000400e00003003a00e280400032a0b400b5
:10030000f5ff370011d9ba008301e900faff3a007e
:100310008100e800e180400032a0b4000000060047
:100320009801040000000000c20104000000000069
:10033000900178000200e00002003a000308e900a2
:10034000050037008080eb001304e000020032005b
:100350000308e8009300fb0001007800000006009d
:100360000200fa00f0bf9f003fb99700ea815700f2
:100370008f80e90080192000190007000080fa0032
:1003800000000600881f780002047800dc000700e7
:10039000080040004f047800000006000000fa004a
:1003a000881f7800000478003fb99700ea81570061
:1003b00080007800201c2000d80007008000780012
:1003c0000000e000020035000040eb0000f478007f
:1003d000010078004f0478000080fa000000060059
:1003e0001200fa00889fbe008a9fbe008c1f780012
:1003f00002047800a0b79f00b1b79f008300780087
:10040000788057007e0107000000eb00e0b79f00f6
:10041000d8b79f0000067800dfb497001945780030
:100420000a80fb000000ea00cf05de000a00fb00a6
:10043000780107000000e0001a0032006fb097005a
:100440000000e800e0b79f003fb0970012002000d6
:100450008000eb00afb197000300010000047800ba
:100460006c010700000178000000e000f3ff3a0093
:100470006fb09700e10f4400070032000000e90070
:10048000e0b79f003fb0970088007800afb19700b9
:1004900003000100230037000000e900e0b79f00df
:1004a0002000370050c2b300804f550002003200d8
:1004b0000b047800190037000b04e900170037001f
:1004c0006fb097000000e800e0b79f003fb09700d2
:1004d000120020008000eb00afb197000300010084
:1004e000800078001900fb00808f50000a00320065
:1004f000e18f40007c0032006fb097000000e900ff
:10050000e0b79f003fb097000001eb00afb197004c
:1005100003000100740037008904e8000804e900c2
:10052000e7ff3b005fb0970080804500d1b79f0098
:1005300050c2b300804f5500030032000a04e000af
:10054000b5ff3a0068003700a2c2b3000040eb00dc
:10055000914f110003003a000100e800d0b79f005e
:1005600002407800a0f79f000000eb0080bf9f00d2
:100570000b0037008fb89700f0ff2700808f5000e6
:10058000040032006a08b900000041000300400086
:1005900080bf9f005fb097000000e800d0b79f00c9
:1005a000dfb49700194478000801fb0003fd2f0019
:1005b00003004100e90f5000eeff36008200780092
:1005c000c0a921001b0107000000e00002003a0062
:1005d00000447800020037000900e800d0b79f000f
:1005e000b8f79f0080c6b300804f540005003a0062
:1005f000dfb09700914f14000c003a0066405000a5
:1006000007003700c0c6b300804f540007003a000f
:10061000dfb09700914f140004003a00654040009d
:10062000b0f79f000100e800d0b79f005fb09700cf
:100630009000fb0030aa2100fe0007000000e0004f
:1006400019003a006fb097000000e800e0b79f0083
:100650003fb09700120020008000eb00afb1970080
:100660000300010000047800ea00070000017800a0
:100670000000e000f3ff3a006fb09700e10f440084
:10068000070032000000e900e0b79f003fb097008c
:1006900088007800afb19700030001000200370026
:1006a0000000e900e0b79f007c805700ea000700e7
:1006b0000000e00003003c000c00e00009003200f4
:1006c000090037004ff097000004e00001003200fd
:1006d0000c06e8005fb097000000e800d0b79f006c
:1006e0004dff3700000678000c0078004f067800b8
:1006f0004f05be004f04be000080fa000000060057
:100700008001eb000200370061f079008301e8000e
:10071000828f5100fcff3a00000006006200fa00e0
:10072000889fbe008a9fbe000004be0002057800bc
:100730008300780060f92f000f004000b000070030
:1007400088979f0099979f000000eb00a09f9f0053
:100750009a4578000b80fb000000ea00cf04de0021
:1007600050c2b30080cf5500020032000904780067
:10077000010037000904e9000800e0000b00340024
:100780001f909700080178008a0078008f919700e9
:100790000300010090979f000000e00093003200ea
:1007a0002f98970000004400a09f9f000905450076
:1007b00050c2b30080cf5500040032000b04e000ab
:1007c000e3ff3a002f989700890037000000eb0004
:1007d000809f9f00f0979f00e0979f00d0979f0019
:1007e000c0979f00b0979f00c09f9f0009003700ef
:1007f00060a921000080500000004000a1a8210055
:10080000e10078004f98970001007000c09f9f00a2
:100810000a05e8001a4478008800fb0060a921005e
:1008200084000700800078000000e000f0ff3a003c
:10083000a0c2b300804f54000e003a00bf8897005a
:100840000180e900b08f9f0010007800b09f9f00ea
:100850000000e00005003d000000ea00b09f9f009e
:100860004f9897000020a000c09f9f000a05e80055
:1008700010003700b19f9f0009003700bf98970014
:10088000f0ff2700808f5000040032006a08b90092
:100890000000410003004000b09f9f000a05e800ef
:1008a0001a01fb0003fd2f0003004100e90f500077
:1008b000f2ff3600e0c2b3009a4f1000040032008d
:1008c0000080eb00909f9f008a0478001c00370096
:1008d0008a04e800a0c2b300994f100007003a0054
:1008e000bf8897000180e900b08f9f00100078005a
:1008f000909f9f008a84e800110037000000eb0001
:10090000909f9f00090037009f989700f0ff2700f5
:10091000808f5000040032006a08b90000004100d6
:1009200003004000909f9f008904e8001901fb002c
:1009300003fd2f0003004100e90f5000f2ff3600d5
:10094000194478008800fb0080aa210039000700c4
:100950000000e00002003a00004478000100370087
:100960008904e800a87f9f0080c6b300804f540030
:1009700004003a00994f14000a003a006640500003
:1009800006003700c0c6b300804f540005003a008f
:10099000994f140003003a0065404000a07f9f007b
:1009a0008904e8000905e800cbfb2f008f8545008e
:1009b0001901fb0060f92f000f0040000084e800df
:1009c0008b0178008000780008007800b9000700eb
:1009d0000000e00005003a008b0078000800780075
:1009e000f70107000000e00059ff3d000080eb0028
:1009f0004f05be004f04be000080fa000000060054
:100a00000200fa00f1bf9f00010878000080fa00a0
:100a1000000006006900e100040035006d00e100ff
:100a2000030034000002b1000100320000000500a4
:100a300010000500040037000204e00001003a0045
:100a4000000005000000e80010417800814f5100cf
:100a5000f9ff3a0000000600881f780000047800c3
:100a60000040eb000054980038009000904078005f
:100a700090c6b30080cf50002a00320013003c0023
:100a80007140500080cf50002600320005003c002d
:100a900050c2b30080cf50006400320030c5b300b4
:100aa0001b00370030c6b30080cf50001b0032005f
:100ab0000040e80080cf50001a003200694050002a
:100ac00080cf50006e003a007300370000c7b300bb
:100ad00080cf500007003c000040e90080cf50006c
:100ae00010003d000040e90080cf500064003a0053
:100af0000f00370050c7b30080cf5000090032000c
:100b00006340400080cf5000060032006540500036
:100b100080cf500043003200590037008000eb00c6
:100b20005e003700080078006f0207005f003700a2
:100b3000684890000004e0005b003a00f84890002c
:100b4000c0c6b30080cf5000270032000a003c002e
:100b50006440500080cf50002b00320000c0e800fd
:100b600080cf5000150032006840500080cf500008
:100b700025003a000a00370040c7b30080cf50007c
:100b8000210032006640400080cf50001e0032003d
:100b90006940500080cf50001b003a00070037002a
:100ba000280090000080e9002004980010007800e0
:100bb000084c9000084878003b003700280090005f
:100bc0000080e9002004980010027800480090009e
:100bd000cf80de000101780082017800009abe001b
:100be0000292be0030003700280090000080e9002b
:100bf000200498001001780048009000cf80de00ab
:100c00000089be0028003700280090000080e9001d
:100c1000200498001000780048049000080878002c
:100c200021003700110020001c0037004800900010
:100c30000000e80040049800180090009801780037
:100c4000120020008000eb0003000100800078000b
:100c500050022000808f50001300320048009000a6
:100c6000e18f4000080032000000e90040049800d5
:100c700018009000980178000001eb0003000100cb
:100c80000000eb00090037000000e9004004980074
:100c900001007800050037008080eb000800780034
:100ca0006a03070001003700100020004f0478009d
:100cb00000000600889fbe008a1f780000047800ac
:100cc000010278008244780003057800e0c6b30092
:100cd000804f5100d200320015003c006b405000a4
:100ce000804f5100240032000a003c007040500048
:100cf000804f51000f01320065404000804f51008d
:100d00007400320050c2b300804f510020013a00fd
:100d10001c01370040c6b300804f51001b00320059
:100d200065404000804f510019013a00170037001c
:100d300030c7b300804f5100fe00320007003c0076
:100d400064405000804f5100620032000040e800d3
:100d5000804f51000e013a00e700370050c7b30042
:100d6000804f51005b00320063404000804f5100d3
:100d700007013a00570037009180e900010a780026
:100d8000780090009171780007013700a86090000a
:100d9000c0c6b30080cf50000a003a00940078002b
:100da00064805000000a78001000be004f89de0009
:100db000cf91de000002be000203780082037800bb
:100dc0001300370010c7b30080cf5000030032007b
:100dd000a0c6b30080cf500006003a00940078000f
:100de00068805000000a78003002be002003be0078
:100df000070037001480e900000a7800100078002e
:100e000000027800cfa2de00050378008603780098
:100e1000049cbe000694be00a860900080c6b3008b
:100e200080cf50000e00320020c6b30080cf5000ab
:100e300005003a000400fb00cf80de0001017800cd
:100e4000820178000a00370040c7b30080cf50000d
:100e5000030032006640400080cf500006003a0098
:100e600004007800cf80de00010178008201780064
:100e7000009cbe000294be003800be002801be00e7
:100e8000e00f5000e08f5800e00f5900e08f59004c
:100e900003003d0078009000d1c2b3000a00370083
:100ea000081090000018a3000300320078009000a2
:100eb000b1c2b300040037000008a30053003200a1
:100ec0007800900001c2b300017578000000e800ce
:100ed0004d003700a8609000c0c6b30080cf50001e
:100ee00006003a009400780064805000000a780000
:100ef0001002be006033b8001300370010c7b30003
:100f000080cf500003003200a0c6b30080cf500055
:100f100006003a009400780068805000000a7800cb
:100f20003002be002003be00070037001480e90035
:100f3000000a780010007800000278000500200008
:100f40000600200007002000049cbe000694be009e
:100f5000a860900080c6b30080cf50000e00320021
:100f600020c6b30080cf500005003a000480fb008b
:100f70000100200002002000030020000a003700ca
:100f800040c7b30080cf50000300320066404000ed
:100f900080cf500006003a000400780001002000d5
:100fa0000200200003002000009cbe000294be004e
:100fb000081090000038a300140032003800be0072
:100fc0002801be00e00f5000e08f5800e00f5900ec
:100fd000e08f59000d00320080c7b30080cf54006d
:100fe0000300320080c5b30080cf540007003a00f0
:100ff0007800900001c3b300017578008000e8001c
:1010000009f578000080e8007004980078009000ee
:1010100000004500600498008940780042003700d5
:10102000a8609000c0c6b30080cf500025003200f9
:101030000a003c006440500080cf5000280032007d
:1010400000c0e80080cf500014003200684050001b
:1010500080cf500022003a000a00370040c7b3009a
:1010600080cf50001e0032006640400080cf50000c
:101070001b0032006940500080cf500018003a0039
:10108000060037001480e900000a7800100078009c
:10109000485c900008487800450037001480e9005b
:1010a000000a78001002780068089000cf80de0007
:1010b0000101780082017800009abe000292be0011
:1010c0003b0037001480e900000a78001001780026
:1010d00068089000cf80de000089be003400370031
:1010e0001480e900000a780010007800680c900075
:1010f000080878002e0037001180e9008008780089
:1011000010007800cf80de000101780082017800b5
:10111000009cbe000294be007800900000004500d4
:101120006004980081c7b30008007800340307000a
:101130001f0037001480e900000a780010007800d2
:1011400060049800580990000200e00002003d0091
:10115000b8040700090037008000eb00bc0407005a
:10116000800078000000e00003003200680090007a
:10117000008050000100370058089000100c9800c3
:101180000b003700780090000275780006003700e9
:1011900078009000800045000904e00001003a005a
:1011a00059c2b300894878000000e8007004980034
:1011b0000000eb004f0578004f04be000000060061
:1011c0000400fa00889fbe008a9fbe008c1f780032
:1011d000000478000106780070089000f800900084
:1011e000010050008808900001005000980890000d
:1011f00001005000a808900001005000b8089000bd
:1012000001005000c8089000810550000002220033
:1012100090bf9f0000032300a0bf9f000810900014
:101220000028a30018003a000b00e000160034006c
:101230008b04780009057800e28f54000200360024
:101240002a002000020037000900e0000b003400f3
:1012500058009000c80190000a017800ee80570005
:1012600003000100500498000000e00096003200e6
:101270006808900000004500600c98008a845400c3
:101280004240a900ebff3c00780190000200e00022
:101290000b00340058009000c80190008c007800ca
:1012a00003000100500498000000e00086003200b6
:1012b00068089000f800900001004000600c980061
:1012c000880c90000900e000150034000905780042
:1012d000e28f5400020036002a002000020037008e
:1012e0000900e0000b00340058009000c801900095
:1012f0000a017800ec8057000300010050049800b8
:101300000000e00070003200680890000000450016
:10131000600c98008a8454004240a900ebff3c0016
:10132000180990000200e0000b003400e800900073
:1013300058009000c801900003000100500498007c
:101340000000e000600032006808900098089000fb
:1013500001004000600c9800a80c90000900e0001b
:101360001500340009057800e28f540002003600b1
:101370002a002000020037000900e0000b003400c2
:1013800058009000c80190000a017800ec805700d6
:1013900003000100500498000000e0004a00320001
:1013a0006808900000004500600c98008a84540092
:1013b0004240a900ebff3c00380990000200e00029
:1013c0000d003400e8009000180890008080400074
:1013d00058009000c80190000300010050049800dc
:1013e0000000e0003800320068089000b808900063
:1013f00001004000600c9800c80c90000900e0005b
:101400001500340009057800e28f54000200360010
:101410002a002000020037000900e0000b00340021
:1014200058009000c80190000a017800ec80570035
:1014300003000100500498000000e0002200320088
:101440006808900000004500600c98008a845400f1
:101450004240a900ebff3c00081090000028a300c8
:101460001b0032000b00e000190034008b047800f0
:1014700009057800e28f5400020036002a0020009f
:10148000020037000900e0000b0034005800900013
:10149000c80190000a017800ee80570003000100a7
:1014a000500498000000e000070032006808900037
:1014b00000004500600c98008a8454004240a90056
:1014c00003003400eaff37000080eb000100370022
:1014d0000000eb004f0678004f05be004f04be0031
:1014e0000080fa00000006002f02b000889fbe00b6
:1014f0008a9fbe008c9fbe008e1f780080047800fb
:10150000600090000000e00001003c00f0ff2700b8
:101510000000e900d0049800c90090000c003300de
:101520000100e800c00498001900900099017800bb
:10153000120020008000eb0003000100000578008d
:10154000b0022000800f550006003a000b00370063
:101550000100e800c00498002cfd2f000f06460093
:101560001b003700d0022000800f5500030032001e
:101570002cfd2f000f0646001600370030fd2f000f
:101580000f044000aad79f00590090000000e90016
:10159000d0049800c90090000a0033000100e80060
:1015a000c0049800190090009901780012002000f2
:1015b0008000eb00030001000005780008067800b9
:1015c000040037000100e800c00498000806780015
:1015d0000085eb0098a42100390090009000fb00ea
:1015e0000800780013fd07000800500021a4210026
:1015f000614478008805fb0000032000800f55003f
:1016000033003a00590090000000e900d00498002f
:10161000c90090000c0033000100e800c0049800ed
:101620001900900099017800120020008000eb0062
:10163000030001000005780080072000800f55009e
:1016400005003a00070037000100e800c0049800d8
:101650000085eb001b00370080052000800f55003f
:1016600018003a000804e00002003200f04f540075
:101670001d003a00590090000000e900d0049800d5
:10168000c9009000090033000100e800c004980080
:101690001900900099017800120020008000eb00f2
:1016a0000300010000057800030037000100e80096
:1016b000c00498000085eb000047eb000b01200000
:1016c000110037000804e000b800320006003700bf
:1016d0000047eb000804e00004003a00ad002000e1
:1016e000084778001c0037001ec0b300ad00200082
:1016f000ea4f540018003200e88f550002003a000b
:101700008b067800140037006d01200012003700ae
:10171000590090000000e900d0049800c900900032
:10172000090033000100e800c0049800190090008f
:1017300099017800120020008000eb0003000100f6
:1017400000057800030037000100e800c00498009d
:101750000085eb001ec0b30000032000800f550081
:10176000ebff32000e04e00018003200005e78004b
:10177000160037006f805700800f560001003100bf
:101780000a5e7800590090000000e900d00498003b
:10179000c9009000090033000100e800c00498006f
:1017a0001900900099017800120020008000eb00e1
:1017b0000300010000057800030037000100e80085
:1017c000c00498000085eb001ec0b300e10f450087
:1017d000070032000d0178008a00780010a5210072
:1017e0001b0307000000e000e2ff3a00660037003c
:1017f000490090000000e900c00498000e04e000d9
:1018000008003a0020fd2f000f004000800f560016
:101810005b003a00e10f450059003a008a00780069
:1018200065003700004eeb00694890001100200071
:101830000004e00060003a00390090009040780019
:1018400040c6b30080cf5000030032006540400026
:1018500080cf50000a003a000b0178008000eb00b6
:1018600020fd2f000f004000030307000203be000d
:101870000002be0010c0b300805498000d00370075
:101880000b0178008000eb0020fd2f000f004000ce
:10189000530307000203be000002be0010c0b300e5
:1018a00080549800b900900000c7b300914f100019
:1018b0002c003200f9489000c0c6b30080cf500021
:1018c000220032000a003c006440500080cf5000eb
:1018d0002400320000c0e80080cf50001400320025
:1018e0006840500080cf50001e003a000a003700c8
:1018f00040c7b30080cf50001a003200664040005d
:1019000080cf5000170032006940500080cf500057
:1019100014003a0006003700290090000080e9001a
:10192000a0049800100078000448780012003700e6
:10193000290090000080e900a004980010007800c1
:101940000498be000690be000b00370029009000ee
:101950000080e900a0049800100078000488be0010
:1019600005003700290090000080e900a0049800dd
:101970001000780004087800110020000e003700e5
:101980008000eb000c003700490090000000e900e7
:10199000c004980019009000990178000001eb0044
:1019a0008a0078000300010094ff37001ec0b300d6
:1019b0008b00200052ff3700010078004f077800ad
:1019c0004f06be004f05be004f04be002f02b100ff
:1019d0000000060080017800100037000302e800d4
:1019e000d0c2b300944f100008003a0093cf10000b
:1019f00003003e002340900080cf500012003600cc
:101a000063824100630151000300370093cf10004f
:101a10000d0032000201e90084017800e20f51005c
:101a2000eeff3e000002eb000400370064c07900c6
:101a30000402e800814f500003003200820f520080
:101a4000faff3a000000050010000500f08747008b
:101a5000889fbe008a9fbe008c9fbe008e1f7800ac
:101a600000047800810678000000eb00c0b79f00fa
:101a7000f8489000c0c6b30080cf500002003a0082
:101a800011002000c1b79f000d00e00023003d00c1
:101a9000b80090000100e80030049800e2c5b300ef
:101aa0008041eb0083f79f00904f110003003a0044
:101ab0000180e8003004980082f79f00b80490008d
:101ac000d0c5b300994f1000020032000900780021
:101ad000010037000900e800d1052000d5fb070010
:101ae000d0b79f008000eb000000e000bd00320096
:101af00009065000e20f5600080034000c81e9008e
:101b00000900e800d10220005102070011c0b30013
:101b1000c1ef9f000000e00002003a008041eb00ae
:101b2000c3ef9f00680090000000e00004003c004c
:101b3000f0ff27000d00e00001003a001000200037
:101b400050049800684890000004e0000d003a003e
:101b500028009000cfb097000100e000050032009f
:101b60000080e9002004980010007800b0b79f00c2
:101b7000040037000080e90020049800100078007d
:101b8000f0b79f000045eb005e0037000d00e0005d
:101b900003003400090078009efb07001e00370098
:101ba0000d00e0001e003200cfe997000304e000c2
:101bb0000c003a00380090008ff097000104e0001c
:101bc00004003a000c017800890078002002070028
:101bd0000b0037000c017800890078001c02070018
:101be0000d003700380090008ff197000304e000eb
:101bf00006003a000c0178008900780075ff0700a4
:101c00000000e00006003a006d0037000c0178008b
:101c1000890078006fff07000000e00068003a00cc
:101c20004fb097000000e00009003a0068489000bb
:101c30000004e00032003a00ffb0970089587800b5
:101c4000f1b79f0010c0b300005498002c0037007b
:101c5000c9e79f008905fb000b00780001003200f6
:101c600010002000000578001e0020000000e000a9
:101c700016003a000904e00004003a007c80570096
:101c8000ec0107000005e800100037000e07e9002e
:101c9000fc81570063407f008000fb0048019000fa
:101ca000e14f4000070032000200e90040049800c4
:101cb00018009000980178000001eb00030001007b
:101cc000020037000200e900400498008e0f550022
:101cd000eeff3500684890000004e00005003a007f
:101ce0003fb097000b187800b0b79f0010c0b3004a
:101cf00000549800680090000000e900600498001b
:101d00002ac0b300580090000000e9005004980079
:101d1000480190000b0033000200e80040049800e6
:101d20001800900098017800120020008000eb005d
:101d30000300010080047800e10f400093ff3a00a7
:101d4000020037000200e8004004980048009000bc
:101d50000000e900400498000d00e000020032009d
:101d6000e24f5500040032000a00fb008080eb00c7
:101d70001c00320010003700684890000004e000aa
:101d800009003a00cfb097000100e00003003200e4
:101d9000bfb197008009eb00030037008fe8970080
:101da0007fb09700014878000d00e00002003d0080
:101db000dfb19700330498001100200009003700bc
:101dc000480090000000e9004004980018009000ce
:101dd000980178000001eb00890078000300010001
:101de000ddff3700010078004f0778004f06be0086
:101df0004f05be004f04be000f01b10000000600f9
:101e00002f03b000889fbe008a9fbe008c9fbe003b
:101e10008e1f78000007780090a72100c0b79f00b0
:101e200080c5b30080cf50000800320082a6210098
:101e3000c2b79f007740400080cf500003003a00b7
:101e400083002000b3b79f000a00370080c7b300ab
:101e500080cf500005003200a4002000b4b79f00de
:101e600080c5b30080cf500002003a000501200079
:101e7000b5b79f003e04be002e05be0040c6b300ad
:101e800080cf5000030032006540400080cf5000fa
:101e90000b003a00e00f5400e08f5c00e00f5d00a3
:101ea000e08f5d0006003d006000b8006011b800e2
:101eb00008045000898458000a0559008b85590090
:101ec0003fb19700e80f510003003200f00f5100be
:101ed00045003a00020037003c00200001003700b6
:101ee0004c002000e00f5400e08f5c00e00f5d002c
:101ef000e08f5d0005003a005e089000830120003d
:101f0000a3b79f000000e000080032003fb2970036
:101f10000400e90008006000cfb297006540780037
:101f200090df9f0070012000a0b79f008c00780018
:101f30008100e900050033008b05d1000a85d3003c
:101f40008984d3000884d300f9ff3700089fbe00be
:101f50000a97be002fb197000200e90023fc2f0072
:101f60008f81410000844100140037002fb097009a
:101f70000000e900a0b79f003fb197000200e90010
:101f800004006000cfb19700635478003e00be00ab
:101f90002e01be000c0278000402e90005003300a7
:101fa0008381d1000281d3008180d3000080d300df
:101fb000f9ff3700009fbe000297be003e02be0040
:101fc0002e03be00e00f5200e08f5a00e00f5b00ce
:101fd000e08f5b00da0034002fb097000000e000d3
:101fe000e2ff3c00d6003700ae60900080c6b30030
:101ff00080cf50000b00320006003c000104e000de
:10200000080032006640500080cf500073003a0054
:1020100004003700c0c6b30080cf50006f003a0004
:1020200031003700080178000800e00005003a00a0
:102030005e08900081012000a1b79f000000e00031
:1020400009003200bfb19700110009000381d800d8
:102050008000fd004fb297006440780090df9f0041
:1020600075012000a5b79f003fb29700110009003d
:102070000481d80080017800afb297000500e90024
:1020800021fc2f008f804000008240000c003700b0
:10209000bfb29700110009008501d8000001780047
:1020a0002fb097000000e900a0b79f000590b9008d
:1020b00000805100cfb09700615278008201780013
:1020c0000300e000030034002fb197000200e0009d
:1020d000efff3c0003007800cf80de0001017800b4
:1020e000820178003a0037000806be00e00f540075
:1020f000e08f5c0005003a005e089000830120003c
:10210000a3b79f000000e000090032003fb2970033
:102110006121b9000c00be00b8030700cfb29700e0
:102120006540780090df9f0070012000a0b79f00fd
:102130003fb297006121b9000c00be009f03070069
:102140000006be00afb297000500e90021fc2f0099
:102150008f8040008080400091b79f0011003700c1
:102160003fb197006114b9000801be000c00be0029
:10217000300307000005be00afb197008301e900fe
:10218000a3b79f000801be0004020700000056002c
:102190001fb29700cfb297006552780094b79f00a6
:1021a0000a06be00e00f5600e08f5e000300340018
:1021b0002fb097000000e000e9ff3c004feade008e
:1021c000cfa2de000c00be0004017800840178007c
:1021d000009fbe000297be0059003700e00f540078
:1021e000e08f5c00e00f5d00e08f5d0005003a00cd
:1021f0005e08900081012000a1b79f000000e00070
:102200000d0032003fb1970002027800cfa2de003d
:1022100005037800860378000800be000a01be00ae
:10222000fa0307004fb297006440780090df9f00e8
:1022300075012000a5b79f003fb19700020278000a
:10224000cfa2de0005037800860378000800be00f8
:102250000a01be00e6030700009fbe000297be0011
:10226000afb197000300e90024fc2f000f024200e9
:102270000006420024003700bfb297000504780032
:10228000cfc4de00090578008a0578000802be0088
:102290000a03be005fa89700efa897007fa99700e8
:1022a0008fb19700dd030700d0b79f00e1b79f0013
:1022b000f2b79f0083bf9f002fb097000000e90096
:1022c000a0b79f000802be000a03be005fb09700df
:1022d000efb097007fb197008fb9970055040700c2
:1022e0005faa970000005200cfb2970065567800b1
:1022f0005fb09700efb097007fb197008fb997005c
:10230000009fbe000297be003e00be002e01be0030
:10231000d0af9f00e1af9f00f2af9f0083b79f0057
:10232000e00f5000e08f5800e00f5900e08f590097
:1023300003003400afb097000100e000ceff3c0086
:102340003fb19700e80f510013003a000e109000c3
:102350000038a30010003200afb19700f78f510092
:1023600006003e0024fc2f000f02420083004200c2
:1023700000c3b300914f100007003200afb29700c6
:102380008502e900a5b79f0000c3b30021fc2f0020
:102390008f80400080f07a00afb197007881110003
:1023a000120f98006e00900024fc2f000f024200d4
:1023b00083004200d2f807001e0990005e089000da
:1023c000800f510006003d0002005000000f9800f1
:1023d0000e1090000040a100001798000f00370079
:1023e0000000e0000d003d000e1090007400600041
:1023f000f00f500009003a007e089000fe009000a7
:10240000010050008e0890000100500002005000b2
:102410004240a90001003400000f98004f077800e7
:102420004f06be004f05be004f04be002f03b10093
:102430000000060080007800010037000000e8007e
:102440001004e000fdff3a0001005000000006000b
:102450008001eb00040037008301e80090cf1000fa
:10246000040032000000e800828f5100faff3a00b9
:102470000000eb00000006000200fa00889fbe008a
:102480008a9fbe008c1f78008005780001057800c7
:10249000020678000100e00001003a006c85570058
:1024a0000b047800010037000804e8009844780025
:1024b0000900fb0057f907000000e000faff3a00ae
:1024c000d0c2b30080cf54000500320000c0e90044
:1024d00080cf5400020032008044780001003700b1
:1024e0000804e8000c0178008a00780008007800f1
:1024f0003b0007000203be000002be009a0f54001a
:1025000001003a000b0d78009a8f550005003a0043
:10251000e00f5200e08f5a00e00f5b00e08f5b009d
:1025200014003a00b0c2b30080cf540006003a0055
:10253000e00f5200e08f5a00e00f5b00e08f5b007d
:1025400020003d000b003700d0c2b30080cf540004
:102550001c003a006000b8000200200003002800c0
:102560000020e10001a8e10002b0e10003b8e100b1
:102570000e0036002002200090d588006b404000fd
:1025800080cf540004003a006000b8000200200030
:10259000030028000d003700f0ff2f00f1ff2f008f
:1025a000f2ff2f00f3ff2700080037006000b8009b
:1025b0006011b800040250008582580006035900db
:1025c000878359000400be000601be004f06780054
:1025d0004f05be004f04be000080fa000000060058
:1025e000fc874700889fbe008a9fbe008c9fbe006c
:1025f0008e1f78000007780081067800820478003a
:1026000000047800010037000804e800184678004c
:102610000c00fb00fff807000000e000faff3a00a2
:10262000d0c2b300804f56000500320000c0e90060
:10263000804f56000200320000467800010037004b
:102640000804e8000900e00005003500e18f5400af
:102650000300320040022000808f54000400340048
:102660000d00e000b00032008e0e7800ae003700a2
:102670000900e0000e003400f08f54001a003a0008
:1026800000c3b300984f100016003a009840900025
:1026900080c7b30080cf50000300320080c5b30074
:1026a00080cf50000f003a000884e8000e00370089
:1026b000a900200000c3b300984f10000a003a00a0
:1026c0009840900080c7b30080cf500004003200d3
:1026d0008900200080c5b30080cf500002003a007e
:1026e0000884e8000901200008057800010037008f
:1026f0000a05e80000c3b3009a4f1000fcff320047
:102700008a0578006022b8006033b80026003700e0
:10271000d0a1210080c0500081ef9f000902780005
:10272000cfa2de0005037800860378000fb0970083
:102730009fb097002fb19700bfb197003d030700ee
:10274000d0b79f00e1b79f00f2b79f0083bf9f0003
:102750000fe897000002fb00cfa2de00050378001f
:10276000860378008b05e8000fb097009fb09700b4
:102770002fb19700bfb19700c0af9f00d1af9f00ae
:10278000e2af9f00f3af9f005fb09700efb09700fc
:102790007fb197008fb997000002420081824a0002
:1027a00002034b0083834b0084b79f0095b79f00c3
:1027b000a6b79f00b7b79f001b00fb007000070083
:1027c0008000780009017800d0a1210020ff0700d7
:1027d000800078000000e000cdff3a008b0f54002d
:1027e0000a003a000d00e0004f0032008e0e780023
:1027f0006022b8006033b80084b79f0095b79f008f
:10280000a6b79f00b7b79f004d0037008a805500dc
:10281000809f210060c07c000000fb000080500011
:102820002c0033004240a90020003c008fea9700b2
:102830000500fb00cf80de000101780082017800f6
:102840000fb297009fb297002fb39700bfb39700c6
:102850000000520081805a0002015b0083815b000e
:102860000020e10001a8e10002b0e10003b8e100ae
:102870000e00390009027800cfa2de0005037800bf
:10288000860378005a0207004faa9700dfaa970034
:102890006fab9700ffab97000400e1000588e100f3
:1028a0000690e1000798e1000a00320020022000b3
:1028b00090d58800f0ff2f00f1ff2f000001be002f
:1028c00080b79f0091b79f00a2b79f00b3b79f004a
:1028d00011003700d0c2b300804f56000e003a00fe
:1028e0006000b8006011b8000fb297009fb2970067
:1028f0002fb39700bfb397000402500085825800a1
:10290000060359008783590084b79f0095b79f003d
:10291000a6b79f00b7b79f000d00e0000800320087
:102920008b0e7800060037006000b8006011b80018
:1029300080b79f0091b79f00a2b79f00b3b79f00d9
:102940000fb097009fb097002fb19700bfb19700cd
:102950004f0778004f06be004f05be004f04be0073
:10296000cf01b1000000060080d580000000e0002b
:10297000010032000000010020ab21000000060031
:10298000800078001104b100030035009101b1000e
:1029900001003c000050a00000000600020ab9003f
:1029a000001bb9000200b800810042008100430012
:1029b00000000600889fbe008a9fbe0001057800c7
:1029c0000100e0000400350008003c000000e000c9
:1029d000200032000500370060001000e080180081
:1029e00002003b0001f02c001a0037000004be007a
:1029f0006011b8006b0920000982cf000200390085
:102a00000882cf000441b000694252000e0032003b
:102a100008003b0082817100610164008904d100db
:102a20000884d3008b05e8000442e800f9ff3a006f
:102a3000050037000804440089844c008b05e90038
:102a40000442e900fbff3a00090107000af0a70071
:102a500001f0a0004f05be004f04be0000000600bc
:102a600003f0a200889fbe008a9fbe008c1f7800e2
:102a7000250107002c0133006450e1004f003200b3
:102a80006420e1005200320003826c0007003b002a
:102a90000905d0000306d000820f54000c065d002b
:102aa0000200390002003200890178000306780034
:102ab0008582550004003d000003fd008103fd00f8
:102ac0008502ea008b854200840f720002003b0001
:102ad00060001000e08018006011b8000005eb00f5
:102ae0007a28e1000a00390006007800c75ddd00a1
:102af000f707b200878075002d00370082817100d2
:102b00000a017800610560008180d1000080d30057
:102b10008502e900f9ff3b00060440008784480075
:102b200002003b0060041400e0841c000988a3003c
:102b3000070032008a8171008281710061016400a6
:102b40008904d1000884d3008b05e8001700370002
:102b50000978a30013003a000b00e00013003400d2
:102b60008b05e9000804440089844c000a44740081
:102b70000978a3000d003a000b00e00007003400c4
:102b80008b05e9000804440089844c0001003a00e8
:102b90000b0020000978a300f7ff32000001eb00d2
:102ba00002003700828171000a017800b00007003e
:102bb0000cf0a70001f0a000e40037006420e10061
:102bc00002003a00838f6c00e40033000801be006d
:102bd0000200be00dd003700889fbe008a9fbe0055
:102be0008c1f7800c8000700cf00330003866c00fc
:102bf0006450e1002e0032006420e1003300320016
:102c00006150e1002f0032006120e100310032000c
:102c100085855500eb07b00009002000080420005e
:102c2000050037000804440089844c000a00310084
:102c30000603430087834b000001530081815b0042
:102c4000f8ff33000203be000800a000080444009f
:102c500089844c00f6ff3900c639dd00830173001a
:102c600001003200130020008904d1000884d30041
:102c70000998a300050032000800a7000300a00087
:102c80008904d1000884d3008b05e8008904d100b1
:102c90000884d3000001eb000281d2007400070019
:102ca00001f0a1000cf0a70001f0a000a700370080
:102cb0006420e100a90032000801be000200be004d
:102cc000f7ff37006120e100a40032006000b80087
:102cd000f3ff37000000200001f82700f0ff370065
:102ce000889fbe008a9fbe008c1f78008600070068
:102cf0008d00330003866c006450e1002400320034
:102d00006420e100270032006150e100220032001f
:102d10006120e100210032008b854200eb07b10009
:102d20000134b800003ab8000804420089844a001f
:102d3000013ab8000030b8008880400009014a001c
:102d40000400330000004000818048000201490077
:102d50008b05e900c909dd00830170000100320024
:102d600013002000c814de004814dd004709de000f
:102d70001200b200c808de00088470003c000700a2
:102d800001f0a1000cf0a70001f0a0006f003700d7
:102d90006120e100710032000801be000200be00a7
:102da000f7ff37006150e100fcff3a006b0037008d
:102db0000001be006c0007000470a70003f0a10032
:102dc0006509b100160032000d0035006828e100e9
:102dd00006003500f0ff2f00f1ff27000300e000a0
:102de00013003b0001002800000005000000400027
:102df000818048008502e900fcff3a0008003700a6
:102e0000f88f420002003c008000eb00000005004b
:102e10008100d1000080d3008502e800fcff3a0069
:102e20000300e00002003b0060001000e08018009a
:102e300000000600839f68000100e00002003d00e2
:102e400060001000e08018000300e00002003d0078
:102e500060011100e0811900580007004f00e000f8
:102e600002003b0060001000e08018000000060037
:102e700081002000618055000b003d000b00200008
:102e800061fe2f000100e1001d003400828171000d
:102e9000610164008904d1000884d3000000e800c7
:102ea000faff3a0071002000610064000300700026
:102eb000020060000900320061044400e0844c001c
:102ec0000988a500050032008b05e8006808e100cc
:102ed00002003a008904d1000884d300f20f2000d8
:102ee0000258e10005003d00c75ddd00f907b200b2
:102ef0008980750008007800000006000bf82700a4
:102f00008b007800000005000004be0016000700da
:102f10000003be000405be000200be001200070050
:102f2000844f7500000006000200be006450e100fe
:102f3000050036006420e100020036000968a300a5
:102f400001003a000800be000160a0004f067800b2
:102f50004f05be004f04be0000000600f0ff2f002a
:102f6000f1ff2700f9ff3700c70ade00f107b200c2
:102f7000f50fb20008003200e1cf4200020032003b
:102f80000170a00024000500810f700001003200d4
:102f90000408050044000500810f700002003a009b
:102fa000140005008502e9000000400081c04800cf
:102fb000fcff3b000170a000240005006022b80067
:102fc000060220000000d0008180d2000482d200de
:102fd0008582d2000000a0000202520083825a00c3
:102fe000030031000202420083824a000000a10077
:102ff0000603e900f3ff3a0000000600efff0700b8
:103000000400be0000000600881f7800000478005d
:103010005001be004000be00040040008580480012
:103020000601490087814900009cbe000294be0051
:103030000400e1000588e1000690e1000798e10046
:1030400002003100680044001008e8004f047800d6
:1030500000000600f4874700889fbe008a9fbe00dc
:103060008c9fbe008e1f78000205be000004be00cb
:10307000d4b79f00e5b79f00f6b79f0087bf9f00ba
:103080000000eb00c0b79f00b0b79f00a0b79f0043
:1030900090b79f0080b79f000d042000bfb097003d
:1030a0004fb09700000140000000e0000f003d001d
:1030b0004f08de0000007100c0b79f009e000700af
:1030c00001003d0012002000a100070001003d00aa
:1030d00012002000a6000700b1000700b60007009c
:1030e0000f004000c8ff0700220037004f08de0035
:1030f00000067100ccb79f008f00070001003d0063
:10310000120020009200070001003d001200200084
:1031100097000700a20007000fb297009fb2970028
:103120002fb39700bfb39700a9000700000052001b
:1031300081805a0002015b0083815b0080b79f00a1
:1031400091b79f00a2b79f00b3b79f000007eb00a5
:103150009f0007000020e10001a8e10002b0e100ab
:1031600003b8e100010031001e0020000e005600ef
:10317000c0b79f004fb297000400e0000700350081
:1031800010002000010020006011b8000804700049
:10319000898470000a0571008b8571008d06e90035
:1031a000beff3a000400e00003003d00820007007b
:1031b0000f00400094ff07004fa897000000e000b8
:1031c00004003a000fb497009fb497002fb5970002
:1031d000bfb59700940007004f0778004f06be0068
:1031e0004f05be004f04be004f01b10000000600b5
:1031f000881f780018002000881f780095ff0700be
:103200008f87e9004f04780000000600801feb0064
:1032100090ff07008f87e90000000600889fbe002e
:103220008a9fbe008c1f78006e00070007003d00db
:1032300073000700e00f5b00e08f5b0007003d00bc
:10324000320007000006eb000400370034000700de
:1032500002003d002a0007001c0020007200070049
:10326000e3ff07000203be000002be000c00e00006
:1032700001003200220007000400be000601be006b
:103280004f0678004f05be004f04be000000060048
:10329000889fbe008a9fbe008c1f780051000700e7
:1032a00005003d0056000700e00f5b00e08f5b006b
:1032b00006003d00040037001900070003003d0030
:1032c0006000b8006011b800100007005600070049
:1032d000ceff07000203be000002be000c00e000ab
:1032e00001003200060007000400be000601be0017
:1032f0004f0678004f05be004f04be0000000600d8
:103300006000b8006011b8000000370004025000ef
:103310008582580006035900878359000000060083
:103320000006eb00e00f5200e08f5a00e00f5b0058
:10333000e08f5b00000006000180400090b79f0016
:103340000001eb008fb097000100e00000000600d4
:103350000200700090b79f000180400080b79f007e
:103360000001eb00ffa897000100e000000006004c
:103370000200700080b79f00018040006faa970094
:10338000cf20de0001007000f0af9f000402420079
:10339000250007004f18de00000272000000060042
:1033a000e4af9f000804440089844c000a054d00e6
:1033b0008b854d00000006003fb29700cfb297000a
:1033c0005fb39700efb3970000fe2f0000000600e8
:1033d0003fb09700cfb097005fb19700efb1970073
:1033e000000006000205be000004be00e00f500011
:1033f000e08f5800e00f5900e08f590000000600f0
:103400006000b8006011b8000804500089845800ba
:103410000a0559008b8559001c002000e00f52005e
:10342000e08f5a00000006000800be000a01be003e
:1034300000000600889fbe008a9fbe008c1f780097
:103440000205be000004be000006eb00e00f5000c5
:10345000e08f5800e00f5900e08f590007003d0051
:103460006000b8006011b80008045000898458005a
:103470000a0559008b8559001c002000e00f5200fe
:10348000e08f5a00e00f5b00e08f5b0002003d0020
:103490000f0007000c00a2000800be000a01be00d9
:1034a000120007000203be000002be000c00e00094
:1034b00001003200060007000400be000601be0045
:1034c0004f0678004f05be004f04be000000060006
:1034d0006000b8006011b8000402500085825800f6
:1034e000060359008783590000000600889fbe002c
:1034f0008a9fbe008c9fbe000404b8000506b80079
:103500008904460060854e000606b8000a0546009c
:10351000e0854e000706b8008b054600040eb80093
:10352000890446000a854e00e0854d00050eb8006e
:103530000a0546008b854e00060eb8008b05460036
:103540000416b8000a0546008b854e000516b80023
:103550008b054600041eb8008b0546000800be001f
:103560000a01be004f06be004f05be004f04be005c
:043570000000060051
:020000040000fa
:0200000401f009
:04000000e6ff000017
:020000040000fa
:0200000401f009
:04000400ff7f00007a
:020000040000fa
:0200000401f009
:040008007fff000076
:020000040000fa
:0200000401f009
:04001400ffff0000ea
:020000040000fa
:100008007c3900007c3900007c3900007c39000014
:100018007c3900007c3900007c3900007c39000004
:100028007c3900007c3900007c39000090260000f3
:100038007c3900007c3900007c3900007c390000e4
:100048007c390000da3800007a3800007c3900007a
:100058007c3900007c390000382b00007c39000016
:100068007c3900007c3900007c3900007c390000b4
:100078007c39000016390000543500007c39000036
:100088007c3900007c3900007c3900007c39000094
:100098007c3900007c3900007c3900007c39000084
:1000a8007c3900007c3900007c3900007c39000074
:1000b8007c3900007c3900007c3900007c39000064
:1000c8007c3900007c3900007c3900007c39000054
:1000d8007c3900007c3900007c3900007c39000044
:1000e8007c3900007c3900007c3900007c39000034
:0800f8007c3900007c39000096
:020000040000fa
:100108007c3900007c3900007c3900007c39000013
:100118007c3900007c3900007c3900007c39000003
:100128007c3900007c3900007c39000090260000f2
:100138007c3900007c3900007c3900007c390000e3
:100148007c390000da3800007a3800007c39000079
:100158007c3900007c390000382b00007c39000015
:100168007c3900007c3900007c3900007c390000b3
:100178007c39000016390000543500007c39000035
:100188007c3900007c3900007c3900007c39000093
:100198007c3900007c3900007c3900007c39000083
:1001a8007c3900007c3900007c3900007c39000073
:1001b8007c3900007c3900007c3900007c39000063
:1001c8007c3900007c3900007c3900007c39000053
:1001d8007c3900007c3900007c3900007c39000043
:1001e8007c3900007c3900007c3900007c39000033
:0801f8007c3900007c39000095
:020000040000fa
:103574004a2c0000256400002c250000642c000067
:10358400256400002c250000642c00002564000044
:103594002c250000642c0000256400000d000000b0
:1035a4006a250000640d00000a0000007a2c000067
:1035b400436f00006d6d0000616e00006420000028
:1035c4006e6f000074200000666f0000756e0000ce
:0835d400640d00000a00000074
:020000040000fa
:1035dc000200fa00350e07000000eb00000f780027
:1035ec000d0037009e00e800808c21000080400018
:1035fc0010407800004178009e007800808c2100fb
:10360c00008040001040780080407800c0cdb300ae
:10361c00520e07001e8fe8009e007800700d2000ef
:10362c00808f5000efff3600240e07000080fa0058
:10363c00000006000200fa00881f78001b0e07002d
:10364c000000eb00000f78000d0037001e04e800ae
:10365c009e007800808c2100008040001040780093
:10366c0080407800c0cdb300180e07008040780071
:10367c00808c210000004400014878001e8fe80077
:10368c009e007800700d2000808f5000efff3600f8
:10369c000a0e07004f0478000080fa0000000600b4
:1036ac000600fa00000f78001e0078002007980032
:1036bc002e009000e10f50000a0032002e00900006
:1036cc00e20f50000a0032002e0090000000e000d3
:1036dc000100320009003700c0c0b3000bf9b7007d
:1036ec000900370080c0b3000bf9b70006003700a3
:1036fc0020c0b3000bf9b700030037000080eb00cb
:10370c0010079800020037000000eb00100798002b
:10371c001e0090000080fa00000006000400fa0071
:10372c00000f7800400420009e0f100006003200ad
:10373c00100120009e0f1000030032003003200007
:10374c009e0f100005003a001e007800fbf8b70031
:10375c000000eb0010079800020037000080eb001f
:10376c00100798001e0090000080fa000000060070
:10377c000400fa00000f78001e00e0001500320073
:10378c00000220009e0f10001200320000032000e7
:10379c009e0f10000f003200000420009e0f10003e
:1037ac000c003200000520009e0f100009003200b2
:1037bc00000620009e0f10000600320000062000bc
:1037cc009e0f100003003200000120009e0f10001d
:1037dc0005003a001e007800f5f8b7000000eb0079
:1037ec0010079800020037000080eb0010079800cb
:1037fc001e0090000080fa00000006000a00fa008b
:10380c002007980031079800ae0090003e00900011
:10381c00808f5000030039000080eb0040079800b7
:10382c001e003700be00900030382000808f500002
:10383c00030036000080eb004007980017003700ab
:10384c002e0090000000e900200798002e00900048
:10385c00204798002e0090004800de00304798006a
:10386c003e009000004f78003e0090004800de00c3
:10387c00104798003e409000d1f8b7002e409000c1
:10388c00d3f8b7001e409000d9f8b7001e4078005e
:10389c00dbf8b7000000eb00400798004e009000ea
:1038ac000080fa00000006000a00fa0020079800c9
:1038bc0031079800ae0090003e009000808f5000c1
:1038cc00030039000080eb00400798001b00370014
:1038dc00be009000301f2000808f50000300360087
:1038ec000080eb0040079800140037002e00900079
:1038fc00204798002e0090004800de0030479800ca
:10390c003e009000004f78003e0090004800de0022
:10391c00104798003e409000d5f8b7002e4090001c
:10392c00d7f8b7001e409000ddf8b7001e407800b5
:10393c00dff8b7000000eb00400798004e00900045
:10394c000080fa00000006000e00fa003007980014
:10395c004107980052079800be0090004e0090005e
:10396c00808f5000030039000080eb006007980046
:10397c002b003700ce009000301f2000808f5000ad
:10398c00030036000080eb0060079800240037002d
:10399c00de00900030382000808f5000030036008d
:1039ac000080eb00600798001d0037003e0090007f
:1039bc00404798003e0090004800de0050479800b9
:1039cc004e009000204798004e0090004800de000a
:1039dc00304798005e009000104798005e00900001
:1039ec004800de00004f78005e40900059f9b700a7
:1039fc004e4090005bf9b7003e4090005df9b70077
:103a0c002e4090005ff9b7001e40780061f9b700b6
:103a1c001e40900063f9b7000000eb0060079800af
:103a2c006e0090000080fa00000006000600fa000c
:103a3c0010079800210798001e0090000000e0007d
:103a4c00060032002e0090000000e000030032005f
:103a5c00a0ccb300004f78000e0037001e00900081
:103a6c000000e00003003200a0c4b300004f780057
:103a7c00080037002e0090000000e0000300320028
:103a8c00a0c8b300004f780002003700a0c0b300fc
:103a9c00004f78001e407800f7f8b7000080fa005d
:103aac00000006000600fa002047980031479800f5
:103abc000000eb00000f7800100037009e0078002b
:103acc00808c210000804000904078002e409000b7
:103adc0080cf500008003a001e00e800818c2100c5
:103aec0001004000be409000014878000000eb004f
:103afc0020079800070037001e8fe8009e00780012
:103b0c00700d2000808f5000ecff36008080eb00a1
:103b1c00210798002e0090000080fa00000006009b
:103b2c000800fa0020479800210798000000eb00dd
:103b3c00000f7800110037009e007800808c210067
:103b4c0000804000904078002e40900080cf5000c4
:103b5c0009003a009e00e800808c210000804000a3
:103b6c00904078002e009000014878000000eb0097
:103b7c0030079800070037001e8fe8009e00780081
:103b8c00700d2000808f5000ebff36000080eb00a2
:103b9c00300798003e0090000080fa0000000600fc
:103bac000200fa00004f7800114798001e40900068
:103bbc00e1f8b7001e407800e3f8b7000080fa0087
:103bcc00000006000800fa00004f7800114798002a
:103bdc00224798003347980044479800f0c4b3003c
:103bec009e4f1000030036000080eb003007980059
:103bfc000c0037001e407800e5f8b7001e4090001e
:103c0c00e7f8b7002e409000e9f8b7004e4090005e
:103c1c00ebf8b7003e409000edf8b7000000eb0069
:103c2c00300798003e0090000080fa00000006006b
:103c3c000400fa00008fbe001e00be004a09dd0021
:103c4c004600de0000007100c608de00f1f8b70087
:103c5c001e00be004209dd004e00de0000007100b7
:103c6c00ce08de00eff8b7000040eb00f3f8b70029
:103c7c000080fa00000006000200fa00004f7800f5
:103c8c001e407800fdf8b7000080fa000000060026
:103c9c000200fa00000f78001e00e0000500320060
:103cac000dd9bf0001c8b300014070000df9b70079
:103cbc00030037000dd9bf000074a1000df9b70047
:103ccc000080fa00000006000400fa00004f7800a3
:103cdc0011479800224798001e40780011f9b70050
:103cec001e40900013f9b7002e40900015f9b70054
:103cfc000080fa00000006000200fa00004f780075
:103d0c00114798001e4078007f4060000045b000cd
:103d1c0017f9b7001e40900019f9b7000080fa009f
:103d2c00000006000600fa001007980041479800b2
:103d3c004e4090000000fb00630060004500dd0079
:103d4c008040780000c8b30000c040009ff9b70065
:103d5c000000eb00000f78000d0037001e0078000b
:103d6c000000400032052000000141001e007800d8
:103d7c00800078001e009000008040009040780089
:103d8c00808c210000004100014878001e0fe800e3
:103d9c001e007800e10f5000f0ff36000080fa00a2
:103dac00000006000000fa00400c07009fd9bf007d
:103dbc00004178009ed9bf0080407800c0cdb30090
:103dcc00660c07003d0c0700019321009140780020
:103ddc001ad9bf00020007000080fa00000006009c
:103dec000600fa0040479800514798000000eb008d
:103dfc00000f78002d0c07000000eb001007980056
:103e0c001f0037009e009000808c21000080400035
:103e1c00904078004e40900080cf50001500390043
:103e2c009e009000808c2100008040009040780023
:103e3c005e40900080cf50000e003e001e009000af
:103e4c008000e800808c2100008040001040780049
:103e5c00004178009e009000808c21000080400082
:103e6c001040780080407800c0cdb3003b0c0700b8
:103e7c001e0fe8001e0090000080e800100798005c
:103e8c009e009000700d2000808f5000ddff3600ea
:103e9c000a0c07001e0078000080fa0000000600e3
:103eac000400fa00100798000000eb00000f7800e7
:103ebc000d0037001e00780000004000b206200004
:103ecc00000141001e007800800078001e00900068
:103edc000080400090407800808c21000000410060
:103eec00014878001e0fe8001e007800e10f50001a
:103efc00f0ff36000080fa00000006000200fa0015
:103f0c00004f7800114798001e40780045f9b70023
:103f1c001e40900047f9b7000080fa000000060030
:103f2c000200fa00004f7800114798001e407800fc
:103f3c0049f9b7001e4090004bf9b7000080fa0019
:103f4c00000006000200fa00004f780011479800ac
:103f5c001e4078004df9b7001e4090004ff9b70095
:103f6c000080fa00000006000200fa00004f780002
:103f7c001e80fb004400dd006f40400065f9b70077
:103f8c000080fa00000006000200fa00004f7800e2
:103f9c00114798001e80fb004400dd008040780033
:103fac001e4090006f40600000c0400067f9b700f1
:103fbc000080fa00000006000200fa00004f7800b2
:103fcc00114798001e4090000080fb004400dd006b
:103fdc00804078001e4078006f40600000c04000b8
:103fec0069f9b7000080fa00000006000400fa002e
:103ffc00008fbe001e00be004088de00cf80de00b9
:10400c006bf9b7001e00be004809dd004800de0059
:10401c0000007100c888de006df9b7001e00780042
:10402c006ff9b7000080fa00000006000200fa00e9
:10403c00004f78001e40780071f9b7000080fa003c
:10404c00000006000400fa00000f78001107980029
:10405c001e0078004800de0077f9b7001e007800db
:10406c0079f9b7001e0090004800de007bf9b7001c
:10407c001e0090007df9b7000080fa0000000600d9
:10408c000600fa00004f780011479800224798006c
:10409c003347980044479800554798002e409000ad
:1040ac007ff9b7003e40900081f9b7001e407800c0
:1040bc0083f9b7001e40900085f9b7004e40900080
:1040cc0087f9b7005e40900089f9b7000080fa00cc
:1040dc00000006000a00fa00000f78001107980093
:1040ec002207980033079800200d20001e0f400077
:1040fc001e009000200db000100798002e009000bc
:10410c0067004000200798003e00900067004000c8
:10411c00300798009e00900020352000808f5000c2
:10412c00030036000080eb00400798003900370090
:10413c00be009000701e2000808f500003003600df
:10414c000080eb0040079800320037001e00900002
:10415c009e0f100004003100ae0090003e00900055
:10416c00808f5000030039000080eb00400798005e
:10417c0028003700501a20009e0f10000c0036004b
:10418c009e00900090272000808f500008003e0079
:10419c00ae009000700a2000808f500004003600a2
:1041ac00be00900060142000808f50000300360089
:1041bc000080eb0040079800160037001e007800c6
:1041cc004800de008bf9b7001e0078008df9b700af
:1041dc001e0090004800de008ff9b7001e00900012
:1041ec0091f9b7002e0090004800de0093f9b7005b
:1041fc002e00900095f9b7003e0090004800de00bc
:10420c0097f9b7003e00900099f9b7000000eb0059
:10421c00400798004e0090000080fa000000060055
:10422c000600fa0010079800210798001e00900065
:10423c000000e000060032002e0090000000e000bc
:10424c0003003200c0c3b300004f78000e003700eb
:10425c001e0090000000e00003003200c0c2b3005a
:10426c00004f7800080037002e0090000000e0009e
:10427c0003003200c0c1b300004f780002003700c9
:10428c00c0c0b300004f78001e4078009bf9b70007
:10429c000080fa00000006000200fa00000f78000f
:1042ac001e00e00005003200ffd8bf00f1c7b300cc
:1042bc0001406000fff8b70004003700ffd8bf00d2
:1042cc0001c8b30001407000fff8b7000080fa008d
:1042dc00000006000400fa00000f78001107980097
:1042ec001e00e00005003200ffd8bf00f1cbb30088
:1042fc0001406000fff8b70004003700ffd8bf0092
:10430c0001c4b30001407000fff8b7001e0090001c
:10431c000000e00005003200ffd8bf00f1cdb30073
:10432c0001406000fff8b70004003700ffd8bf0061
:10433c0001c2b30001407000fff8b7000080fa0022
:10434c00000006000a00fa00f5d8bf000080fb0050
:10435c004007980000032000ce009000808f500092
:10436c003100320000032000ce009000808f5000fe
:10437c000b003c004e009000f00f50002200320069
:10438c0000022000ce009000808f500022003200ee
:10439c004e0090000000e00017003200360037009d
:1043ac0000052000ce009000808f500026003200c7
:1043bc0000052000ce009000808f500005003c00ce
:1043cc0000042000ce009000808f50001a003200b4
:1043dc002900370000062000ce009000808f50008e
:1043ec001d00320000072000ce009000808f50008e
:1043fc001d003200200037000000280001072000bb
:10440c00008fbe0020003700000020006109200052
:10441c00008fbe001c003700000024008103200028
:10442c00008fbe001800370000002200c1012000e0
:10443c00008fbe001400370000002100e1002000b6
:10444c00008fbe001000370000802000710020009b
:10445c00008fbe000c003700004028003100200007
:10446c00008fbe000800370000202c001100200037
:10447c00008fbe00040037006000b80020079800d1
:10448c00310798000a0037000bd9bf00ec4f5000e1
:10449c0004003a001e00be0000004000818048006d
:1044ac00008fbe001e00be00200798003107980048
:1044bc002e009000be0090000080fa000000060064
:1044cc001000fa0020079800310798004207980066
:1044dc0053079800640798005e0090000000e0000d
:1044ec00030035005e009000e30f50000300340021
:1044fc000080eb00700798004c0037006e009000b5
:10450c000000e000030035006e009000e30f500047
:10451c00030034000080eb00700798004300370064
:10452c0088ff07000001be00606a20000013b8007d
:10453c006010b9000702780000024200606a200097
:10454c000098b90000024200840378002e0090000d
:10455c006101b9000600be0033fa0700100798008d
:10456c0078ff07000001be00606a20000013b8004d
:10457c006010b9000702780000024200606a200057
:10458c000098b90000024200840378003e009000bd
:10459c006101b9000600be0023fa0700000f780085
:1045ac001e0090004800de0003f9b7001e009000ca
:1045bc0005f9b7001e0078004800de0007f9b700c7
:1045cc001e00780009f9b7004e0090000000e000d2
:1045dc0004003200ffd8bf000044a000fff8b70071
:1045ec0004003700ffd8bf00f1ceb30001406000db
:1045fc00fff8b7006e009000e34060005e00900092
:10460c00630060004200dd0000c14000ffd8bf0025
:10461c008040780000cfb30000c060000040410033
:10462c00fff8b7000000eb00700798007e009000c8
:10463c000080fa00000006002400fa00889fbe00eb
:10464c00640a0700120b0700f013200040079800c3
:10465c000000eb0050079800100020006007980045
:10466c00001e20007007980010002000000f98001a
:10467c0010002000100f98000000eb00300798008d
:10468c003e0090000000e00005003a00ee009000b3
:10469c007e0090000088b900000f780005003700fc
:1046ac00ee0090007e0090000088b90000004000f1
:1046bc00000f7800c90907003e0190001e08900009
:1046cc00800178000e08900000027800fe00900037
:1046dc001e0890000088b90080037800ee0090005e
:1046ec000e0890000088b90000047800de009000ed
:1046fc001e0890000088b90080047800ce0090005d
:10470c000e0890000088b90002037800830278003c
:10471c008701780008017800890078006309070098
:10472c0011002000100020008c090700a2090700ce
:10473c000000eb0080bb88000000370064004700dd
:10474c00a90a07000000e000f30032004e40900080
:10475c000004e0006c003d004e4090000000fb00a7
:10476c008000ea0090042000808f5000010032008d
:10477c005d0037006000b80090cf8800a1cf8800a2
:10478c0005e1a9000000eb00200888004110200082
:10479c009140780000c3b30000c0700004e1b70082
:1047ac000000eb000008880000102e0010088800a4
:1047bc008460a9008c60a80005e1a800808020001e
:1047cc00db0807002000200090bb880092bb800013
:1047dc003e0090008040780000c0eb0080c060007c
:1047ec000080200000004100014878000200e80031
:1047fc0090bb880092bb80003e0090008000780047
:10480c0000f02f00008060004800de00804078003f
:10481c000080200000004100014878000200e80000
:10482c0090bb880092bb80006e00900080407800a6
:10483c0000c0eb0080c06000008020000000410040
:10484c00014878000200e80090bb880092bb800011
:10485c006e0090008000780000f02f000080600057
:10486c004800de00804078000080200000004100fd
:10487c00014878000200e80090bb880092bb8000e1
:10488c007e0090008040780000c0eb0080c060008b
:10489c000080200000004100014878000200e80080
:1048ac0090bb880092bb80007e0090008000780056
:1048bc0000f02f00008060004800de00804078008f
:1048cc000080200000004100014878000200e80050
:1048dc0090bb880090bb80001e00400090bb8800fd
:1048ec001000200080bb8800640047003e0a0700cf
:1048fc000000e000fcff32004e4090000004e0009d
:10490c0095ff3a00840037004e4090000004e00010
:10491c00810034000200370064004700320a0700af
:10492c004e409000ea4f5000fbff32004e4090008a
:10493c00ed4f5000f8ff32000000eb00100798001c
:10494c009e0090004e4190000080200000804000ae
:10495c00024878001e0090000000e8001007980044
:10496c0064004700200a07000000e0000800320045
:10497c009e0090004e41900000802000008040007e
:10498c00024878001e0090000000e8001007980014
:10499c004e409000ea4f5000030032004e40900011
:1049ac00ed4f5000eeff3a009e009000008020007a
:1049bc00808040000040eb00804878001e00900092
:1049cc000000e8001007980000c8bf008000fb0042
:1049dc00a0042000808f5000010032004b003700f3
:1049ec000180200072004700801f78007000470093
:1049fc00801f78006e004700801f78006c00470015
:104a0c00801f78006a004700801f7800680047000c
:104a1c00801f780066004700801f7800a0ab29003b
:104a2c00801f7800010078004aee0700f0875700dd
:104a3c003e0090000000e00005003a00ee009000ff
:104a4c007e0090000088b900000f78000500370048
:104a5c00ee0090007e0090000088b900000040003d
:104a6c00000f78003e0190001e0890008001780035
:104a7c000e08900000027800fe0090001e089000c6
:104a8c000088b90080037800ee0090000e089000ba
:104a9c000088b90000047800de0090001e08900029
:104aac000088b90080047800ce0090000e089000b9
:104abc000088b9000203780083027800870178002f
:104acc0008017800890078007808070011002000a0
:104adc0010002000a1080700b70807006e00900026
:104aec00801f780020ad2900801f78008070210085
:104afc0027ee0700e487570060bb880061bb80008d
:104b0c00807021009a090700030037005101200032
:104b1c0080ad29009609070080bb80000000e000f2
:104b2c0006ff32005d0807000000e00003ff3200c2
:104b3c0005e1a900080880006140b9009af7070058
:104b4c0000179800111798000800e00007003d00be
:104b5c0002002000037824000e1090009e1090009c
:104b6c00bdf707000017980011179800180880006f
:104b7c006140b9008cf70700600f9800710f980026
:104b8c000800e00007003d0002002000037824002c
:104b9c006e089000fe089000aff70700600f9800b9
:104bac00710f98006e099000fe0990000e10900095
:104bbc009e10900005f8070092cf8000a3cf8000d4
:104bcc00a5f7070002002000a347240041f80700c6
:104bdc0074f8070070bb880070bb800080407800c0
:104bec0000c0eb0000c0600000e8b70070bb8000a4
:104bfc008000780000f02f00008060004800de008c
:104c0c0001e8b7000000eb000008880005e1a800ef
:104c1c0091bb800000802000550907006009070047
:104c2c000000e000fdff3a0005e1a9000808800043
:104c3c006140b9005cf70700400f9800510f9800d5
:104c4c000800e00007003d0002002000037824006b
:104c5c004e089000de0890007ff70700400f980088
:104c6c00510f9800180880006140b9004ef70700fa
:104c7c00200f9800310f98000800e00007003d005d
:104c8c0002002000037824002e089000be0890003b
:104c9c0071f70700200f9800310f98002e09900033
:104cac00be0990004e089000de089000c7f7070080
:104cbc0002002000a347240006f8070039f807007b
:104ccc0070bb880070bb80008040780000c0eb0097
:104cdc0000c0600000e8b70070bb80008000780066
:104cec0000f02f00008060004800de0001e8b700f3
:104cfc0000802000210020001d0907002809070062
:104d0c000000e000fdff3a000000eb0080bb8800d3
:104d1c008afe370000a0fe003600f800849fbe001b
:104d2c00869fbe00881f78003400f8000400200025
:104d3c00a40188001800fa008460a90005e1a9000c
:104d4c00080880006140b90017f70700200f980091
:104d5c00310f98000800e00007003d000200200021
:104d6c00037824002e089000be0890003af7070044
:104d7c00200f9800310f9800180880006140b9008e
:104d8c0009f70700000f9800110f98000800e000c9
:104d9c0007003d0002002000037824000e0890005c
:104dac009e0890002cf70700000f9800110f980038
:104dbc000e0990009e0990002e089000be089000ed
:104dcc0082f7070092cf8000a3cf800022f7070064
:104ddc0090cf8800a1cf88000000eb00000888006d
:104dec0080bb80000000e00079003200ab070700b8
:104dfc000000e00075003200080880006140b90036
:104e0c00e9f6070060079800710798000800e000b9
:104e1c0007003d0002002000037824006e00900083
:104e2c00fe0090000cf707006007980071079800cf
:104e3c00180880006140b900dbf6070040079800b5
:104e4c00510798000800e00007003d000200200018
:104e5c00037824004e009000de009000fef6070060
:104e6c0040079800510798004e019000de01900019
:104e7c006e009000fe00900054f7070092cf800067
:104e8c00a3cf8000f4f6070002002000a347240003
:104e9c0090f70700c3f7070070bb880070bb800059
:104eac008040780000c0eb0000c0600000e8b70054
:104ebc0070bb80008000780000f02f000080600044
:104ecc004800de0001e8b7006000b80090cf880011
:104edc00a1cf880005e1a80091bb800000802000d4
:104eec00a3080700ae0807000000e000fdff3a0031
:104efc0005e1a900080880006140b900aaf6070086
:104f0c0020079800310798000800e00007003d00da
:104f1c0002002000037824002e009000be009000b8
:104f2c00cdf607002007980031079800180880007c
:104f3c006140b9009cf60700008fbe000800e0003d
:104f4c0005003d0002002000037824001e00be0076
:104f5c00c1f60700008fbe001e01be002e0090009f
:104f6c00be00900019f7070002002000a3472400a0
:104f7c0058f707008bf7070070bb880070bb8000e8
:104f8c008040780000c0eb0000c0600000e8b70073
:104f9c0070bb80008000780000f02f000080600063
:104fac004800de0001e8b70000802000210020004e
:104fbc006f0807007a0807000000e000fdff3a00c8
:104fcc000000eb0080bb88000100370005e1a80061
:104fdc000080fa003400f9004f0478004f03be0043
:104fec004f02be003600f9000080fe0000400600b3
:104ffc000000fa000000370006c2bf0061406000ec
:10500c000004e000fcff3a0006c2bf0064406000f0
:10501c000004e000f8ff3a0006c2bf0068406000e0
:10502c000004e000f4ff3a0006c2bf0070406000cc
:10503c000004e000f0ff3a0009c2bf000044b200d7
:10504c000004e000ecff3a000080fa0000000600cb
:10505c000400fa00600920002010880007e2a90073
:10506c0007e2a80085c0a90085a0a900b10920000d
:10507c009140780080cfb30000c060005040b30076
:10508c009be0b7008da0a900007122000100200058
:10509c00008fbe00040037000080eb008080eb0026
:1050ac001e0f40005e9748001e00be00e00f50002f
:1050bc00e08f5800f8ff3a00100020000080fa0042
:1050cc00000006000400fa006000b800008fbe006b
:1050dc0007e2a90085c0a90085a0a9008da0a900a0
:1050ec000071220001002000008fbe000400370078
:1050fc000080eb008080eb001e0f40005e974800a4
:10510c001e00be00e00f5000e08f5800f8ff3a0080
:10511c00cfff07000f0007000071220001002000e4
:10512c00008fbe00040037000080eb008080eb0095
:10513c001e0f40005e9748001e00be00e00f50009e
:10514c00e08f5800f8ff3a00100020000080fa00b1
:10515c00000006000000fa0085c0a9008dc0a80060
:10516c00100020000080fa00000006000000fa0089
:10517c0085c0a9008dc0a900100020000080fa0095
:10518c00000006000600fa0010c0b300e4f9b700f6
:10519c0008c2bf00704060000004e000160032003e
:1051ac000602a8000071220001002000008fbe0042
:1051bc000a003700e4d9bf000004e00003003a0005
:1051cc0010002000200798000d0037000080eb0035
:1051dc008080eb001e0f40005e9748001e00be0052
:1051ec00e00f5000e08f5800f2ff3a008000eb0017
:1051fc0021079800020037000000eb002007980000
:10520c002e0090000080fa00000006000600fa0054
:10521c0060c0b300e4f9b70008c2bf00684060008a
:10522c000004e000160032000622a80000712200e3
:10523c0001002000008fbe000a003700e4d9bf0037
:10524c000004e00003003a00100020002007980042
:10525c000d0037000080eb008080eb001e0f40003b
:10526c005e9748001e00be00e00f5000e08f580013
:10527c00f2ff3a008000eb00210798000200370093
:10528c000000eb00200798002e0090000080fa0030
:10529c00000006000600fa0050c0b300e4f9b700a5
:1052ac000642a8000071220001002000008fbe0001
:1052bc000a003700e4d9bf000004e00003003a0004
:1052cc0010002000200798000a0037000080eb0037
:1052dc008080eb001e0f40005e9748001e00be0051
:1052ec00e00f5000e08f5800f2ff3a008000eb0016
:1052fc00210798002e0090000080fa0000000600a4
:10530c000600fa0030c0b300e4f9b70006c2bf00d3
:10531c00614060000004e00010003a0006c2bf00cb
:10532c00644060000004e0000c003a0006c2bf00bc
:10533c00684060000004e00008003a0006c2bf00ac
:10534c00704060000004e00004003a0006c2bf0098
:10535c00624060000004e000030032000000eb003b
:10536c00200798001600370006a2a9000682a800a4
:10537c000071220001002000008fbe000a003700df
:10538c00e4d9bf000004e00003003a001100200043
:10539c00210798000a0037000080eb008080eb00aa
:1053ac001e0f40005e9748001e00be00e00f50002c
:1053bc00e08f5800f2ff3a008000eb0021079800c4
:1053cc002e0090000080fa00000006000600fa0093
:1053dc0030c0b300e4f9b70006c2bf006140600002
:1053ec000004e00010003a0006c2bf0064406000f8
:1053fc000004e0000c003a0006c2bf0068406000e8
:10540c000004e00008003a0006c2bf0070406000d3
:10541c000004e00004003a0006c2bf0062406000d5
:10542c000004e000030032000000eb0020079800ad
:10543c001600370006a2a8000682a8000071220000
:10544c0001002000008fbe000a003700e4d9bf0025
:10545c000004e00003003a0011002000210798002e
:10546c000a0037000080eb008080eb001e0f40002c
:10547c005e9748001e00be00e00f5000e08f580001
:10548c00f2ff3a008000eb00210798002e009000fc
:10549c000080fa00000006000a00fa0030079800ad
:1054ac0000712200010020001007980021079800cd
:1054bc000040eb00004f780040c0b300e4f9b700a7
:1054cc0000712200010020001007980021079800ad
:1054dc001d00370006c2bf00614060000004e00000
:1054ec0013003a0006c2bf00644060000004e000f4
:1054fc000f003a0006c2bf00684060000004e000e4
:10550c000b003a0006c2bf00704060000004e000cf
:10551c0007003a0009c2bf000044b2000004e000da
:10552c0003003a0010c0b300004f78000b003700a6
:10553c001e009000ae00900061005000e08058000a
:10554c0010079800210798001e009000ae009000f4
:10555c00e00f5000e08f5800deff3a001e04e00020
:10556c0003003a000000eb00400798001d003700d4
:10557c000662a800006a280011002000100798009d
:10558c002107980010003700e4d9bf000004e000a8
:10559c0007003a0000c2bf00804078003e00900037
:1055ac000148780010002000400798000d003700db
:1055bc001e009000ae00900061005000e08058008a
:1055cc0010079800210798001e009000ae00900074
:1055dc00e00f5000e08f5800ebff3a000000eb00aa
:1055ec00400798004e0090000080fa000000060072
:1055fc000800fa004047980020c0b300e4f9b70057
:10560c004e40900002e2b700007122000100200021
:10561c00008fbe000a003700e4d9bf000004e00090
:10562c0003003a0010002000300798000a003700f1
:10563c000080eb008080eb001e0f40005e9748005e
:10564c001e00be00e00f5000e08f5800f2ff3a0041
:10565c008000eb00310798003e0090000080fa00bb
:10566c0000000600801f78003400f80000002000c5
:10567c00a00188000000fa0085c0a9000040eb00e2
:10568c00e4f9b7000080fa003400f9004f0078000c
:10569c00004006000200fa00004f780003060700e5
:1056ac001e41780031c0b300c0cdb3002b060700fb
:1056bc00020607000080fa00000006000400fa0051
:1056cc00004f780011479800224798001e40780040
:1056dc00f0ff0700f50507002e4190009e4090005a
:1056ec00c0cdb3001d060700f40507000080fa00ca
:1056fc00000006000400fa0020479800314798008b
:10570c002e409000e3ff0700e8050700be40900024
:10571c00c0cdb300ed050700004f7800e70507008a
:10572c001e80fb000080fa00000006000200fa0058
:10573c00004f78001e41780011c9b3000040eb0007
:10574c00deff07000080fa00000006000200fa00ed
:10575c00004f78001e41780081c6b30010c0b30022
:10576c00d6ff07000080fa00000006000600fa00d1
:10577c00004f78001e80fb002007980000042000da
:10578c00ae009000808f50001a00320000082000fc
:10579c00ae009000808f50002700320000022000e5
:1057ac00ae009000808f50000100320033003700b3
:1057bc0010c0b300e5ff07001e41780001c8b3001c
:1057cc0010c0b300bdff07001e41780011c8b30024
:1057dc0010c0b300b9ff070012c0b30021c8b3005a
:1057ec0010c0b300b5ff07000000eb0010079800d5
:1057fc002400370030c0b300d4ff07001e417800ee
:10580c0001c8b30010c0b300acff07001e41780004
:10581c0011c8b30010c0b300a8ff070012c0b3003a
:10582c0021c8b30010c0b300a4ff07008000eb0038
:10583c00110798001300370070c0b300c3ff0700b6
:10584c001e41780001c8b30010c0b3009bff0700d5
:10585c001e41780011c8b30010c0b30097ff0700b9
:10586c0012c0b30021c8b30010c0b30093ff0700ef
:10587c000000eb0010079800020037008080eb005e
:10588c00110798001e0090000080fa00000006002e
:10589c000600fa00004f78001e80fb0020079800dd
:1058ac0000042000ae009000808f50001a003200df
:1058bc0000082000ae009000808f500027003200be
:1058cc0000022000ae009000808f500001003200da
:1058dc00330037000040eb009cff07001e417800ae
:1058ec0001c8b30010c0b30074ff07001e4178005c
:1058fc0011c8b30010c0b30070ff070012c0b30092
:10590c0021c8b30010c0b3006cff07000000eb000f
:10591c00100798002400370010c0b3008bff07005d
:10592c001e41780001c8b30010c0b30063ff07002c
:10593c001e41780011c8b30010c0b3005fff070010
:10594c0012c0b30021c8b30010c0b3005bff070046
:10595c008000eb00110798001300370030c0b30033
:10596c007aff07001e41780001c8b30010c0b300d5
:10597c0052ff07001e41780011c8b30010c0b300dd
:10598c004eff070012c0b30021c8b30010c0b30013
:10599c004aff07000000eb001007980002003700d8
:1059ac008080eb00110798001e0090000080fa0028
:1059bc00000006000600fa00004f7800114798001e
:1059cc001e80fb00200798002e009000e10f500075
:1059dc000f0032002e009000e20f50001400320035
:1059ec002e0090000000e00001003200180037008b
:1059fc00d2c0b30081c3b30010c0b3002fff0700a7
:105a0c001e40900059ff0700100798001200370045
:105a1c0082c0b30081c3b30010c0b30027ff0700de
:105a2c001e4090009aff0700100798000a003700ec
:105a3c0022c0b30081c3b30010c0b3001fff070026
:105a4c001e40900092ff07001007980002003700dc
:105a5c000080eb00100798001e0090000080fa00f8
